:100000000C9464000C948C000C948C000C94BE0F27
:100010000C94BE0F0C94BE0F0C948C000C940A0F21
:100020000C948C000C948C000C948C000C948C0020
:100030000C948C000C948C000C948C000C948C0010
:100040000C94C00E0C948C000C948C0F0C94660FC6
:100050000C948C000C948C000C948C000C948C00F0
:100060000C948C000C948C000000000024002700ED
:100070002A0000000008000201000003040700003D
:1000800000000000000002000000002300260029FC
:100090000000000000250028002B000404040404D4
:1000A0000404040202020202020303030303030125
:1000B00002040810204080010204081020010204FC
:1000C000081020003610AB1611241FBECFEFD8E069
:1000D000DEBFCDBF22E0AAEAB1E001C01D92AB3D78
:1000E000B207E1F711E0A0E0B1E0E6EFF7E302C00C
:1000F00005900D92AA3AB107D9F710E0C3E6D0E017
:1001000004C02197FE010E94C319C236D107C9F766
:100110000E94E1100C94EE1B0C940000833081F0DF
:1001200028F4813099F08230A9F008958730A9F041
:100130008830C9F08430B1F4809180008F7D03C095
:10014000809180008F7780938000089584B58F77A9
:1001500084BD089584B58F7DFBCF8091B0008F77EB
:100160008093B00008958091B0008F7DF9CF1F93E8
:10017000CF93DF93282F30E0F901EE58FF4F8491A1
:10018000F901E155FF4FD491F901E556FF4FC491B4
:10019000CC23A9F0162F81110E948E00EC2FF0E0E5
:1001A000EE0FFF1FEF56FF4FA591B4918FB7F89454
:1001B000EC91111108C0D095DE23DC938FBFDF9145
:1001C000CF911F910895DE2BF8CFCF93DF9390E06E
:1001D000FC01E155FF4F249185569F4FFC0184910E
:1001E0008823C9F090E0880F991FFC01E859FF4F60
:1001F000A591B491FC01EF56FF4FC591D4916111C7
:100200000DC09FB7F8948C91209582238C938881A0
:10021000282328839FBFDF91CF910895623051F446
:100220009FB7F8943C91822F809583238C93E8812B
:100230002E2BEFCF8FB7F894EC912E2B2C938FBFF2
:10024000EACF8F929F92AF92BF92CF92DF92EF92BE
:10025000FF92CF936B0190911301891769F09F3F33
:1002600009F46FC0CF91FF90EF90DF90CF90BF90D7
:10027000AF909F908F900895E6E8F0E0C491C7FD9D
:10028000F1CF61E00E94E500CC2319F0C23009F003
:100290002CC1F12CE12C60E072E18AE790E0A7012B
:1002A00096010E94A41949015A01DA01C901019776
:1002B000A109B1098F3F9105A105B10509F00CF421
:1002C000F8C060E472E48FE090E0A70196010E941C
:1002D000A4192150310941095109C23009F0AAC0BD
:1002E00082E02F3F31054105510509F00CF492C120
:1002F00060E970ED83E090E0A70196010E94A419E7
:10030000215031094109510983E02F3F3105410551
:10031000510509F00CF47EC168E478EE81E090E0CC
:10032000A70196010E94A4192150310941095109E0
:100330002F3F31054105510511F00CF099C084E0C3
:1003400069C180931301E6E8F0E0C491CF3F09F45E
:1003500089CFC13039F148F0C23009F445C0C7FD3A
:1003600081CF61E00E94E50091CF14BC15BC94B52B
:10037000926094BD95B5916095BD282F30E0F9014C
:10038000E556FF4FE491F0E0EE0FFF1FEF56FF4FF1
:1003900045915491F901E155FF4FE491E0930E022C
:1003A000C0E06FCF10928000109281009091810088
:1003B000986090938100909181009160909381006A
:1003C000282F30E0F901E556FF4FE491F0E0EE0F01
:1003D000FF1FEF56FF4F45915491F901E155FF4F33
:1003E000E491E0930D024DCF1092B0001092B10055
:1003F0009091B00092609093B0009091B1009160A4
:100400009093B100282F30E0F901E556FF4FE491B9
:10041000F0E0EE0FFF1FEF56FF4F459154915093C0
:100420000C0240930B02F901E155FF4FE491E09378
:100430000A0227CF2F3F31054105510509F00CF481
:1004400052C068E478EE81E090E0A70196010E9436
:10045000A4192150310941095109CC2309F4AFC035
:100460002F3F31054105510511F00CF0B0C067CFA9
:1004700064E274EF80E090E0A70196010E94A41965
:10048000215031094109510985E02F3F31054105CE
:10049000510509F008F4BEC062E17AE780E090E01F
:1004A000A70196010E94A41921503109410951095F
:1004B0009CC09C0181E0C111ADC095B5987F892B8E
:1004C00085BD27BD8FEF9FEFDC01809317029093CE
:1004D0001802A0931902B0931A0280916E008260F4
:1004E00080936E00BFCE82E0E6CFF12CE12C60E07D
:1004F00072E18AE790E0A70196010E94A4192150B9
:1005000031094109510991E02115310581E0480780
:1005100051056CF068E478EE81E090E0A701960167
:100520000E94A419215031094109510993E0C130B9
:1005300009F076C080918100887F892B80938100AB
:1005400030938900209388008FEF9FEFDC01809328
:10055000130290931402A0931502B0931602809197
:100560006F00826080936F007DCE2093B3008FEF89
:100570009FEFDC0180930F0290931002A093110271
:10058000B0931202809170008260809370006ACEF6
:1005900084E02F3F31054105510509F008F48DCF66
:1005A0009AE0B594A794979487949A95D1F7A5016A
:1005B0009401215031094109510985E07ECF83E042
:1005C0002F3F31054105510509F00CF476CF62E16A
:1005D0007AE780E090E0A70196010E94A4192150DB
:1005E000310941095109CC2399F286E02F3F3105A9
:1005F0004105510579F070F08AE0B594A79497947D
:1006000087948A95D1F7A5019401215031094109B8
:10061000510987E09091B100987F892B8093B100B8
:10062000C13009F48DCFC23009F49FCFC1111ACE69
:1006300048CF1F93CF93DF93182FEB0161E00E9407
:10064000E500209739F460E0812FDF91CF911F9171
:100650000C94B700CF3FD10511F461E0F5CFE12F45
:10066000F0E0EE58FF4FE491E33031F140F4E13037
:10067000B1F0E230E1F0C038D1057CF7E4CFE730EB
:1006800029F1E83059F1E430B1F7809180008062BF
:1006900080938000D0938B00C0938A0004C084B5FF
:1006A000806884BDC7BDDF91CF911F91089584B547
:1006B000806284BDC8BDF7CF809180008068809340
:1006C0008000D0938900C0938800EDCF8091B00066
:1006D00080688093B000C093B300E5CF8091B000F4
:1006E00080628093B000C093B400DDCF8E3008F0FC
:1006F0008E508770806480937C0080917A00806443
:1007000080937A0080917A0086FDFCCF80917800FA
:100710009091790008953FB7F894809106029091E6
:100720000702A0910802B091090226B5A89B05C056
:100730002F3F19F00196A11DB11D3FBFBA2FA92F60
:10074000982F8827BC01CD01620F711D811D911D5D
:1007500042E0660F771F881F991F4A95D1F70895C9
:100760008F929F92AF92BF92CF92DF92EF92FF92C1
:100770004B015C010E948B036B017C010E948B0387
:100780006C197D098E099F09683E734081059105AA
:10079000A8F321E0821A9108A108B10888EEC80EDA
:1007A00083E0D81EE11CF11C81149104A104B10462
:1007B00029F7FF90EF90DF90CF90BF90AF909F9080
:1007C0008F9008952FB7F894609102027091030200
:1007D00080910402909105022FBF0895909113011A
:1007E00089130BC0E6E8F0E0E4919FEF90931301CA
:1007F000E13049F028F0E23061F060E00C94B7009D
:1008000010926E00FACF90916F009D7F90936F00D1
:10081000F4CF909170009D7F9093700091E0909341
:10082000B0009091B100987F94609093B1001092C5
:10083000B300E3CF0F931F93CF93DF93EC010E949C
:10084000E203688779878A879B87E881F981028438
:10085000F385E02DCE01099597FF15C00E94E203B4
:10086000088519852A853B85601B710B820B930BCC
:100870000C811D812E813F816017710782079307CC
:1008800020F38FEF9FEFDF91CF911F910F9108958C
:10089000DC01ED91FC910190F081E02D0994AF9283
:1008A000BF92CF92DF92EF92FF920F931F93CF935D
:1008B000DF936C017B018B01040F151FEB015E01BF
:1008C000AE18BF08C017D10759F06991D601ED9154
:1008D000FC910190F081E02DC6010995892B79F7F3
:1008E000C501DF91CF911F910F91FF90EF90DF90A5
:1008F000CF90BF90AF900895FC01538D448D252F6C
:1009000030E0842F90E0821B930B541710F0CF96A9
:10091000089501970895FC01918D828D981761F0DB
:10092000A28DAE0FBF2FB11D5D968C91928D9F5FF2
:100930009F73928F90E008958FEF9FEF0895FC01D1
:10094000918D828D981731F0828DE80FF11D858D84
:1009500090E008958FEF9FEF0895FC01918D228D17
:10096000892F90E0805C9F4F821B91098F7399279C
:1009700008958BE192E00E94AD0421E0892B09F4F7
:1009800020E0822F089580E090E0892B29F00E94DA
:10099000B90481110C9400000895FC01A48DA80FE6
:1009A000B92FB11DA35ABF4F2C91848D90E00196B1
:1009B0008F739927848FA689B7892C93A089B189D1
:1009C0008C91837080648C93938D848D981306C072
:1009D0000288F389E02D80818F7D80830895EF92D6
:1009E000FF920F931F93CF93DF93EC0181E0888FE9
:1009F0009B8D8C8D98131AC0E889F989808185FFB9
:100A000015C09FB7F894EE89FF896083E889F9895A
:100A100080818370806480839FBF81E090E0DF915C
:100A2000CF911F910F91FF90EF900895F62E0B8DAF
:100A300010E00F5F1F4F0F731127E02E8C8D8E116A
:100A40000CC00FB607FCFACFE889F989808185FFD1
:100A5000F5CFCE010E94CD04F1CFEB8DEC0FFD2F31
:100A6000F11DE35AFF4FF0829FB7F8940B8FEA898C
:100A7000FB8980818062CFCFCF93DF93EC01888D9B
:100A80008823B9F0AA89BB89E889F9898C9185FD09
:100A900003C0808186FD0DC00FB607FCF7CF8C9197
:100AA00085FFF2CF808185FFEDCFCE010E94CD047E
:100AB000E9CFDF91CF9108952091EC013091ED01C4
:100AC0002817390771F49091EA018091EB0198178A
:100AD00041F0E091EA01F0E0E655FE4F808190E0C0
:100AE00008958FEF9FEF08950895EF92FF920F936F
:100AF0001F93CF93DF93DC015C96ED90FC905D97A4
:100B0000E114F10479F481E090E013969C938E93C4
:100B1000129790E080E0DF91CF911F910F91FF90AD
:100B2000EF9008955196ED91FC91529750968C91CB
:100B30005097982F90950FB75E962C915E97122F35
:100B4000127021FD6095F8942081112319F1282B52
:100B50002083E7012197F1F728E0462F50E030810C
:100B600060FF1AC0382B3083E7012197F1F7BA01F3
:100B700075956795215089F7112381F0808189232C
:100B800080830FBF5C968D919C910197F1F781E076
:100B900090E0C1CF2923DCCF3923E5CF9081892B89
:100BA000EFCF2091EC013091ED012817390761F466
:100BB0008091EB012091EA0190E0805C9F4F821BC5
:100BC00091098F739927089590E080E0089520910E
:100BD000EC013091ED0128173907B9F49091EA0141
:100BE0008091EB01981789F0E091EA01F0E0E65579
:100BF000FE4F80812091EA0130E02F5F3F4F2F733D
:100C000033272093EA0190E008958FEF9FEF089536
:100C100090E080E00895CF92DF92EF92FF92CF9321
:100C2000DF93DC011796CC911797D0E06111DC2F90
:100C300018962C91189730E0220F331F29573F4FF9
:100C400050E040E0F90185919491FC01F080BA01F7
:100C500090E080E0EF2DEC23ED1310C04F5F5F4F6D
:100C60001D96CD90DD90ED90FC9050976C157D0514
:100C70008E059F0538F36FEF7FEFCB01DF91CF91AA
:100C8000FF90EF90DF90CF9008958F929F92AF9258
:100C9000BF92CF92DF92EF92FF920F931F93CF9369
:100CA000DF93CDB7DEB7C054D1400FB6F894DEBFA6
:100CB0000FBECDBF8C010E94E203F801C184D28433
:100CC000E384F4849B01AC012C193D094E095F09B2
:100CD00069017A0130EDC31637E0D306E104F1046F
:100CE000A8F48189C05CDE4F0FB6F894DEBF0FBE5A
:100CF000CDBFDF91CF911F910F91FF90EF90DF90CB
:100D0000CF90BF90AF909F908F900895618772872A
:100D1000838794871482138212821182108262E088
:100D200085810E94E50061E070E080E090E00E9433
:100D3000B00361E0F80185810E94E50060E0F80100
:100D400085810E94B700F80186818551823028F59F
:100D50008BE291E10197F1F762E0F80185810E9451
:100D6000E500F801828990E08230910538F0880F23
:100D7000991F880F991F05970197F1F7F89460E084
:100D8000C8010E940B066F3F7F4F8F4F9F4F61F44A
:100D9000F801118A789480E0A5CF64E170E080E0EA
:100DA00090E00E94B003D8CF61E0C8010E940B061A
:100DB0006F3F7F4F8F4F9F4F59F39E012F5F3F4FE4
:100DC00079015E013FEBA31A3EEFB30A670160E0D1
:100DD000C8010E940B06F6016083718382839383AE
:100DE00061E0C8010E940B06F60164837583868367
:100DF0009783F8E0CF0ED11CCA14DB0441F7789436
:100E000030E020E0F70180809180A280B3804481AF
:100E1000558166817781FFEF8F169F06AF06BF066B
:100E200031F04F3F8FEF58076807780719F4F80142
:100E3000118AB1CFF90183E0F595E7958A95E1F73D
:100E4000E00FF11F8081880F84169506A606B7066D
:100E5000F0F080832F5F3F4FF8E0EF0EF11C283257
:100E6000310581F6F801448120818181280F3327E3
:100E7000331F8281280F311D8381820F932F911D93
:100E800099274817190699F681E0818B2BCF81604D
:100E9000E0CFEF92FF920F931F93CF93DF93E090F9
:100EA0000B0161E08E2D0E94E500F090090161E0E8
:100EB0008F2D0E94E5000091070161E0802F0E94C4
:100EC000E5001091110161E0812F0E94E500D091B1
:100ED0000F0161E08D2F0E94E500C0910D0161E0DE
:100EE0008C2F0E94E50080910001882329F060E0AA
:100EF000809103010E94E50060E08E2D0E94B70002
:100F000070E060E08F2D0E941903802F0E94EE0395
:100F100070E060E0812F0E94190370E060E08D2F87
:100F20000E94190370E060E08C2FDF91CF911F9138
:100F30000F91FF90EF900C941903CF93DF93FC0176
:100F4000248135816217730788F49B01C081D181A8
:100F50006CE270E0CE01820F931F0E94B41B0097D9
:100F600029F08C1B9D0BDF91CF9108958FEF9FEFA0
:100F7000FACFCF93DF93EC0188819981009711F02C
:100F80000E94651A198218821D821C821B821A8295
:100F9000DF91CF910895FC0180819181009711F03C
:100FA0000C94651A0895FC0180819181009711F0DD
:100FB0000C94C71660E070E0CB010895AF92BF9229
:100FC000CF92DF92EF92FF920F931F93CF93DF9315
:100FD000DC01CD90DC901197C114D10439F0149646
:100FE000CD91DC918C017601209761F4DF91CF9156
:100FF0001F910F91FF90EF90DF90CF90BF90AF9037
:10100000089575015701BFEFAB1ABB0AF701808144
:10101000082E000C990B0E940317892B91F721973A
:10102000CC0DDD1D8881082E000C990B0E94031742
:10103000892B29F0CE15DF0510F02197F3CFAE01F3
:101040004F5F5F4F4E195F09D80115965C934E9321
:101050001497CE14DF0420F4B701C6010E94AB1B25
:10106000D801ED91FC91119714968D919C91E80F08
:10107000F91F1082BBCFFB0101900020E9F73197E7
:10108000AF01461B570BDC01ED91FC910280F3810F
:10109000E02D09948F929F92AF92BF92EF92FF92B0
:1010A0000F931F93CF93DF93CDB7DEB7A1970FB602
:1010B000F894DEBF0FBECDBF7C01FA01CB0119A2AF
:1010C000223008F42AE08E010F5D1F4F822E912CF2
:1010D000B12CA12CBF01A50194010E948219F90134
:1010E000CA016A300CF5605DD8016E938D01232B27
:1010F000242B252B79F790E080E0109721F0BD019B
:10110000C7010E943B08A1960FB6F894DEBF0FBE40
:10111000CDBFDF91CF911F910F91FF90EF90BF90C6
:10112000AF909F908F900895695CDECFCF92DF9251
:10113000EF92FF920F931F93CF93DF938C016B017C
:10114000770FEE08FF08F7FE21C06DE20E94480409
:10115000EC0144275527BA014C195D096E097F0936
:101160002AE0C8010E944A08C80FD91F6EE371E047
:10117000C8010E943B088C0F9D1FDF91CF911F91EA
:101180000F91FF90EF90DF90CF9008952AE0B70184
:10119000A6010E944A08EC01E9CFCF92DF92EF92BC
:1011A000FF920F931F93CF93DF936B01770FEE089E
:1011B000FF08F7FE1BC0EC016DE20E9448048C01A1
:1011C00044275527BA014C195D096E097F092AE0A9
:1011D000CE010E944A08800F911FDF91CF911F918D
:1011E0000F91FF90EF90DF90CF9008952AE0B70124
:1011F000A601DF91CF911F910F91FF90EF90DF90AB
:10120000CF900C944A082F923F924F925F926F9228
:101210007F928F929F92AF92BF92CF92DF92EF9286
:10122000FF921F93CF93DF93EC016A017B01722E33
:10123000AB019601CB01B6010E947D1961E471E01A
:10124000811126C046015701E894B7F82FEF3FEF10
:101250004FE75FE7C501B4010E947D1981110CC001
:101260002FEF3FEF4FE75FE7C501B4010E940C1776
:1012700065E471E0181664F02FEF3FEF4FE75FE48D
:10128000C701B6010E9478191816B4F469E471E038
:10129000CE01DF91CF911F91FF90EF90DF90CF9023
:1012A000BF90AF909F908F907F906F905F904F9086
:1012B0003F902F900C943B082FEF3FEF4FE75FECF0
:1012C000C701B6010E940C1787FDE0CF20E030E097
:1012D000A901C701B6010E940C17312C212C87FFF0
:1012E00009C06DE2CE010E9448041C01F7FAF09497
:1012F000F7F8F09410E060E070E080E09FE3711692
:1013000041F020E030E040E251E40E94D7181F5F36
:10131000F6CFA70196010E946B182B013C010E9499
:1013200049194B015C012AE0BC01A401CE010E94D5
:101330004A087C01E20CF31C1123C1F1C501B40180
:101340000E9411179B01AC01C301B2010E946A18EF
:101350004B015C016EE2CE010E944804E80EF91ECA
:10136000115020F120E030E040E251E4C501B40129
:101370000E9472172B013C010E9449194B01B12CAC
:10138000A12C2AE0B501A401CE010E944A08E80E72
:10139000F91EC501B4010E9411179B01AC01C301E4
:1013A000B2010E946A184B015C01DACFC701DF91DC
:1013B000CF911F91FF90EF90DF90CF90BF90AF90B3
:1013C0009F908F907F906F905F904F903F902F9065
:1013D0000895EF92FF921F93CF93DF93182F809180
:1013E00003019091040120910001222309F46DC0B2
:1013F0009C013327F901EE58FF4F8491F901E15523
:10140000FF4FD491F901E556FF4FC491C1114BC074
:10141000CFEFD3E0809101010E9476037C016DE45F
:1014200071E0112309F455C088EB92E00E943B085B
:101430004091F2015091F3016091F4017091F50136
:1014400022E088EB92E00E94030960E571E088EBFE
:1014500092E00E943B084091EE015091EF016091B3
:10146000F0017091F10122E088EB92E00E94030903
:1014700064E571E088EB92E00E943B08BE0188EBD6
:1014800092E00E94CD0868E571E088EB92E00E944E
:101490003B08B70188EB92E0DF91CF911F91FF905D
:1014A000EF900C94960881110E948E00EC2FF0E0D2
:1014B000EE0FFF1FE957FF4FA591B491EC91DE238A
:1014C00009F4A6CFD0E0C0E0A5CF0E947603EC01DE
:1014D000A1CF8BE192E00E943B084091F201509134
:1014E000F3016091F4017091F50122E08BE192E04B
:1014F0000E94030960E571E08BE192E00E943B08E5
:101500004091EE015091EF016091F0017091F10175
:1015100022E08BE192E00E94030964E571E08BE137
:1015200092E00E943B08BE018BE192E00E94CD0850
:1015300068E571E08BE192E00E943B08B7018BE126
:1015400092E0AACFCF93DF93DC0114962D913C91CA
:101550001597232B79F0FB01CD91DC91608171818E
:10156000CE010E94D41B009729F08C1B9D0BDF91AC
:10157000CF9108958FEF9FEFFACFFB014481558102
:10158000FC01248135812417350778F08081918111
:10159000009759F0FB01608171816115710529F097
:1015A0000E94C61B21E0892B09F020E0822F0895BC
:1015B0000F931F93CF93DF93EC018881998100975C
:1015C00059F02A813B812617370730F081E0DF91FF
:1015D000CF911F910F9108958B016F5F7F4F0E94F4
:1015E000EE1A009759F0998388831B830A832C8114
:1015F0003D81232B59F7FC011082E8CF80E0E7CF33
:10160000EF92FF920F931F93CF93DF93EC017B0137
:101610008A01BA010E94D80A81110BC0CE010E9432
:10162000B907CE01DF91CF911F910F91FF90EF90FD
:1016300008951D830C83B701888199810E94BF1B87
:10164000F0CFFC0111821082138212821582148263
:10165000FB0101900020E9F73197AF01461B570BC2
:101660000C94000BCF92DF92EF92FF920F931F9397
:10167000CF93DF9300D0CDB7DEB78C016B0160E470
:1016800071E00E94210BC6010E941A0497FD21C03F
:101690008A309105F1F089831A82F801E480F5809F
:1016A000FFEFEF1AFF0AB701C8010E94D80A88238A
:1016B00051F3F8012081318184819581BE016F5FF2
:1016C0007F4F820F931F0E94BF1BF801F582E482B7
:1016D000DACFC8010F900F90DF91CF911F910F913A
:1016E000FF90EF90DF90CF900895AF92BF92CF928E
:1016F000DF92EF92FF920F931F93CF93DF937C01C2
:101700006B015A0189012417350720F48B2D5901EB
:10171000042F182F60E471E0C7010E94210BD6014D
:101720001496CD91DC91AC16BD0620F50C171D0763
:1017300008F4E801D601ED91FC911197EC0FFD1F23
:10174000108110826D917C916A0D7B1D6115710570
:10175000E9F0FB0101900020E9F73197AF01461B4A
:10176000570BC7010E94000BF60180819181C80FC1
:10177000D91F1883C701DF91CF911F910F91FF905F
:10178000EF90DF90CF90BF90AF900895C7010E9477
:10179000B907EACFCF93DF93EC01FB0124813581B8
:1017A0000E94750BCE01DF91CF9108952F923F9249
:1017B0004F925F926F927F928F929F92AF92BF9261
:1017C000CF92DF92EF92FF920F931F93CF93DF930D
:1017D000CDB7DEB760970FB6F894DEBF0FBECDBFB2
:1017E0008C01809107010E94EE0370E060E080911F
:1017F00009010E94190360E080910B010E94B7006B
:1018000070E060E0809111010E94190370E060E0D7
:1018100080910F010E94190370E060E080910D013A
:101820000E9419036CE571E0CE0101960E94210B24
:10183000BE016F5F7F4FC8010E94A20A7C01CE01EA
:1018400001960E94CB072FEFE216F20609F474C04E
:10185000B701C8010E949D074C013C018FEF681A37
:10186000780AB301C8010E949D075C016C019FEFDB
:10187000C91AD90AB601C8010E949D079E878D87A3
:101880002FEF8216920609F457C08FEFA816B806FC
:1018900009F452C0A7014C5F5F4F9401B801CE011B
:1018A00001960E94750BCE0101960E94D3071B0181
:1018B000788B6F87CE0101960E94CB079501A3011B
:1018C000B801CE0101960E94750BCE0101960E94CF
:1018D000D3074B013B01CE0101960E94CB078D85BA
:1018E0009E858F3F980709F4F2C19C01A601B801BB
:1018F000CE0101960E94750BCE0101960E94D3077E
:101900007B01CE0101960E94CB078F85988918161E
:10191000190624F4309212012092110116141704B2
:1019200024F49092100180920F011E141F0424F4DD
:10193000F0920E01E0920D0161E671E0CE01019698
:101940000E94210BBE016F5F7F4FC8010E94A20A57
:101950007C01CE0101960E94CB079FEFE916F906A4
:1019600009F448C0B701C8010E949D075C016C01E1
:101970002FEFC21AD20AB601C8010E949D074C017E
:101980008FEFA816B806B1F1A7014B5F5F4F950125
:10199000B801CE0101960E94750BCE0101960E94FE
:1019A000D3072B015B01CE0101960E94CB079FEF6D
:1019B0008916990609F492C19401A601B801CE01D5
:1019C00001960E94750BCE0101960E94D3077B0100
:1019D000CE0101960E94CB071A141B0424F45092E6
:1019E0000C0140920B011E141F0424F4F0920A0112
:1019F000E092090167E671E0CE0101960E94210B99
:101A0000BE016F5F7F4FC8010E94A20A7C01CE0118
:101A100001960E94CB072FEFE216F20609F1B701FB
:101A2000C8010E949D07A7014C5F5F4F8F3F980739
:101A300009F45BC19C01B801CE0101960E94750BAF
:101A4000CE0101960E94D3077B01CE0101960E9430
:101A5000CB071E141F0424F4F0920801E092070142
:101A60006CE671E0CE0101960E94210BBE016F5F12
:101A70007F4FC8010E94A20A7C01CE0101960E94FC
:101A8000CB078FEFE816F80609F1B701C8010E94ED
:101A90009D07A7014C5F5F4F8F3F980709F42BC14B
:101AA0009C01B801CE0101960E94750BCE010196F2
:101AB0000E94D3077B01CE0101960E94CB071E1422
:101AC0001F0424F4F0920601E092050161E771E041
:101AD000CE0101960E94210BBE016F5F7F4FC801AE
:101AE0000E94A20A7C01CE0101960E94CB078FEFD3
:101AF000E816F80609F441C0B701C8010E949D0725
:101B0000A7014C5F5F4F8F3F980709F4FAC09C0113
:101B1000B801CE0101960E94750B66E771E0CE0117
:101B200007960E94210BBE01695F7F4FCE0101968F
:101B30000E94BD0AF82ECE0107960E94CB07FF2017
:101B400009F4E5C041E050E0BE016F5F7F4FCE0178
:101B500007960E94CA0BCE0107960E94D307625FC8
:101B60007F4F7093040160930301CE0107960E949A
:101B7000CB07CE0101960E94CB0768E771E0CE014A
:101B800001960E94210BBE016F5F7F4FC8010E942A
:101B9000A20A7C01CE0101960E94CB078FEFE816C6
:101BA000F80609F441C0B701C8010E949D07A701CA
:101BB0004B5F5F4F8F3F980709F4B6C09C01B80197
:101BC000CE0101960E94750B66E771E0CE01079683
:101BD0000E94210BBE01695F7F4FCE0101960E94DA
:101BE000BD0AF82ECE0107960E94CB07FF2009F40C
:101BF000A1C041E050E0BE016F5F7F4FCE0107966C
:101C00000E94CA0BCE0107960E94D307625F7F4FE6
:101C10007093020160930101CE0107960E94CB07E9
:101C2000CE0101960E94CB076EE771E0CE010196CE
:101C30000E94210BBE016F5F7F4FC8010E94A20A64
:101C40007C01CE0101960E94CB078FEFE816F806C3
:101C500019F1A701455F5F4FB801CE0101960E94BF
:101C6000CA0B6AE871E0CE0107960E94210BBE0103
:101C7000695F7F4FCE0101960E94BD0A182FCE01E9
:101C800007960E94CB07112309F461C0109200014E
:101C9000CE0101960E94CB070E94490760960FB6BD
:101CA000F894DEBF0FBECDBFDF91CF911F910F9192
:101CB000FF90EF90DF90CF90BF90AF909F908F906C
:101CC0007F906F905F904F903F902F900895A60166
:101CD000B801CE0101960E94CA0B0ECEA601B80132
:101CE000CE0101960E94CA0B6ECEB801CE010196BC
:101CF0000E94CA0BA5CEB801CE0101960E94CA0B64
:101D0000D5CEB801CE0101960E94CA0B06CFCE01F6
:101D100001960E94D307161617060CF02ACF70936F
:101D200004016093030125CFB801CE0101960E9402
:101D3000CA0B4ACFCE0101960E94D307161617068A
:101D40000CF06ECF709302016093010169CF6DE8D2
:101D500071E0CE0107960E94210BBE01695F7F4FA3
:101D6000CE0101960E94BD0A182FCE0107960E944F
:101D7000CB07112309F48CCF81E08093000188CF39
:101D80001F920F920FB60F9211242F933F938F93B0
:101D90009F93AF93BF938091020290910302A09111
:101DA0000402B09105023091010223E0230F2D3788
:101DB00058F50196A11DB11D2093010280930202E6
:101DC00090930302A0930402B0930502809106024F
:101DD00090910702A0910802B09109020196A11DFD
:101DE000B11D8093060290930702A0930802B0935E
:101DF0000902BF91AF919F918F913F912F910F90C9
:101E00000FBE0F901F90189526E8230F0296A11D74
:101E1000B11DD2CF1F920F920FB60F9211242F93A4
:101E20003F934F935F936F937F938F939F93AF9362
:101E3000BF93EF93FF9380910F0290911002A091B6
:101E40001102B0911202892B8A2B8B2BD1F1909128
:101E50000A02E0910B02F0910C02808189278083B5
:101E600080910F0290911002A0911102B091120284
:101E7000181619061A061B069CF480910F02909101
:101E80001002A0911102B09112020197A109B109AB
:101E900080930F0290931002A0931102B09312024C
:101EA000FF91EF91BF91AF919F918F917F916F9132
:101EB0005F914F913F912F910F900FBE0F901F9008
:101EC0001895809113010E94EE03EACF1F920F92A2
:101ED0000FB60F9211242F933F934F935F936F93FD
:101EE0007F938F939F93AF93BF93EF93FF938BE178
:101EF00092E00E94CD04FF91EF91BF91AF919F912D
:101F00008F917F916F915F914F913F912F910F90A2
:101F10000FBE0F901F9018951F920F920FB60F9241
:101F200011242F938F939F93EF93FF93E0912B02B4
:101F3000F0912C028081E0913102F091320282FD19
:101F40001BC09081809134028F5F8F732091350286
:101F5000821741F0E0913402F0E0E55EFD4F958F8D
:101F600080933402FF91EF919F918F912F910F9069
:101F70000FBE0F901F9018958081F4CF1F920F9283
:101F80000FB60F9211242F933F934F935F936F934C
:101F90007F938F939F93AF93BF93EF93FF93E091C2
:101FA000EC01F091ED01309749F0A685B785858564
:101FB000968D91FF14C09C918923A1F4FF91EF911C
:101FC000BF91AF919F918F917F916F915F914F9151
:101FD0003F912F910F900FBE0F901F9018959C91DD
:101FE000892361F7A389B4899C9185898095892388
:101FF0008C93868997890197F1F7608D718DA685FD
:10200000B785558538E020E0CB010197F1F7822FA5
:1020100090E095958795282F4C91452309F02068ED
:10202000315091F7868D81FD20958091EB0190E0F4
:1020300001968F7399273091EA01381799F0A09192
:10204000EB01B0E0A655BE4F2C938093EB01828D3F
:10205000938D0197F1F7A389B4898C919589892B88
:102060008C93ACCF868D8160868FF1CF10921E024B
:1020700010921D0288EE93E0A0E0B0E080931F0272
:1020800090932002A0932102B09322022EE131E02E
:1020900030931C0220931B0225EC30E03093280281
:1020A0002093270224EC30E030932A022093290267
:1020B00020EC30E030932C0220932B0221EC30E016
:1020C00030932E0220932D0222EC30E03093300228
:1020D00020932F0226EC30E030933202209331021D
:1020E000109234021092350210923602109237028A
:1020F0001092BB021092BA028093BC029093BD0270
:10210000A093BE02B093BF0280E391E09093B90226
:102110008093B8021092CF021092CE021092D10298
:102120001092D0021092D3021092D2021092D502D5
:102130001092D4026091D6026E7F6D7F6093D602BA
:102140006695617081E0682785E00E94B70061E0D4
:1021500085E00E94E500E4EBF0E0E491E093C80242
:10216000E0EAF0E0E491F0E0EE0FFF1FEF56FF4FE2
:10217000859194919093CA028093C90260E082E0B5
:102180000E94E5008091D60281FD04C061E082E0FA
:102190000E94B70082E08093C402E1EBF0E0E4919A
:1021A000E093C502EDE9F0E0E491F0E0EE0FFF1FEF
:1021B000E957FF4F859194919093C7028093C6028F
:1021C0000895CF93DF93CDB7DEB72D970FB6F89470
:1021D000DEBF0FBECDBF789484B5826084BD84B568
:1021E000816084BD85B5826085BD85B5816085BD12
:1021F00080916E00816080936E00109281008091CA
:102200008100826080938100809181008160809351
:102210008100809180008160809380008091B10076
:1022200084608093B1008091B00081608093B000A1
:1022300080917A00846080937A0080917A00826035
:1022400080937A0080917A00816080937A008091F7
:102250007A00806880937A001092C100E0912B028E
:10226000F0912C0282E08083E0912702F091280215
:102270001082E0912902F0912A0280E1808310927D
:102280003302E0912F02F091300286E08083E091EA
:102290002D02F0912E02808180618083E0912D02D9
:1022A000F0912E02808188608083E0912D02F09170
:1022B0002E02808180688083E0912D02F0912E02B1
:1022C00080818F7D80831092D3021092D20210926F
:1022D000D1021092D0021092CF021092CE028FE162
:1022E00090E09093D5028093D4029091C4029631ED
:1022F00008F047C021E030E03093CF022093CE02B7
:102300002DE130E03093D1022093D0022DE030E077
:102310003093D3022093D2022091680084E0983059
:1023200048F031E09E3008F430E081E001C0880FD1
:102330003A95EAF7822B809368002DE630E09830DA
:1023400050F02BE630E09E3030F02CE630E0963155
:1023500010F030E020E03093CC022093CB02292F04
:1023600030E0983008F02EC281E001C0880F9A95C5
:10237000EAF78093CD028091D4029091D502019723
:10238000F1F78091D2029091D302892B49F1E0912B
:10239000EC01F091ED0122E0E83BF20709F1309702
:1023A00039F0A389B4899C918589809589238C9380
:1023B0008091D6028E7F8093D6021092EB0110920C
:1023C000EA0188EB92E09093ED018093EC01E091BB
:1023D000CB02F091CC0280819091CD02892B808339
:1023E00083E190E00E94C9198C01809105019091D0
:1023F0000601D80115968C9315972BE016962C9311
:1024000016979C013327F901E155FF4FE491179688
:10241000EC931797F901E556FF4FE4911896EC936A
:1024200040E85EE360E070E0F80145875687678723
:10243000708B1093F7010093F60162E00E94E500B3
:102440000E94E203605D774081099109D8011996E5
:102450006D937D938D939C931C9787E352968C93F9
:102460000E94490730E0232E30E0332E88EB92E0C3
:102470000E94D105181619060CF0CCC068EB72E06A
:10248000CE0107960E94320BCE0107960E94DE070E
:1024900060E971E0CE0101960E94210BEF80F88483
:1024A000E114F10409F49BC10B851C85011511058C
:1024B000B9F08D819E81080F191FB801CE010196D8
:1024C0000E94D80A882309F48AC129813A818D8122
:1024D0009E81B701820F931F0E94BF1B1E830D8335
:1024E0004D815E8169817A818BE192E00E944F0487
:1024F0006EE371E08BE192E00E943B08CE01019611
:102500000E94CB078B859C85892B09F47FC00E9494
:10251000E2036093FD017093FE018093FF019093AD
:1025200000026CE571E0CE0101960E94210BBE0114
:102530006F5F7F4FCE0107960E94BD0A182FCE0114
:1025400001960E94CB07112309F44EC170E060E0B0
:10255000CE0107960E949D076C017C01BFEFEB1A2C
:10256000FB0AB701CE0107960E949D078C01EFEF91
:10257000CE16DE0609F44AC0019609F447C096015A
:1025800044E050E0BE01695F7F4FCE0101960E949A
:10259000750BCE0101960E94D3072B01CE01019647
:1025A0000E94CB079801A701BE01695F7F4FCE0152
:1025B00001960E94750BCE0101960E94D3074B0134
:1025C000CE0101960E94CB07A8014F5F5F4FBE016D
:1025D000695F7F4FCE0101960E94CA0BCE01019622
:1025E0000E94D3076B01CE0101960E94CB07B20176
:1025F000809111010E941903B40180910F010E9482
:102600001903B60180910D010E941903CE010796AE
:102610000E94CB078BE192E00E94AD0418161906C8
:102620000CF092C06BE172E0CE0107960E94320B73
:10263000CE0107960E94DE078B859C85892B09F4C5
:102640007FC00E94E2036093FD017093FE018093BE
:10265000FF01909300026CE571E0CE0101960E94AB
:10266000210BBE016F5F7F4FCE0107960E94BD0A0E
:10267000182FCE0101960E94CB07112309F48AC1BD
:1026800070E060E0CE0107960E949D076C017C011E
:102690003FEFE31AF30AB701CE0107960E949D07A8
:1026A0008C014FEFC416D40609F44AC0019609F410
:1026B00047C0960144E050E0BE01695F7F4FCE0104
:1026C00001960E94750BCE0101960E94D3072B0143
:1026D000CE0101960E94CB079801A701BE01695F58
:1026E0007F4FCE0101960E94750BCE0101960E948C
:1026F000D3074B01CE0101960E94CB07A8014F5F83
:102700005F4FBE01695F7F4FCE0101960E94CA0BE9
:10271000CE0101960E94D3076B01CE0101960E9463
:10272000CB07B201809111010E941903B40180917D
:102730000F010E941903B60180910D010E94190337
:10274000CE0107960E94CB070E94E2034B015C0179
:102750008091F8019091F901A091FA01B091FB01EB
:10276000A5019401281B390B4A0B5B0BDA01C90147
:10277000803D9740A105B10508F48DC28092F80113
:102780009092F901A092FA01B092FB010091F6013A
:102790001091F701C8010E944506882361F0D80115
:1027A00016968C918B3038F08D3008F4C9C1855164
:1027B000823008F4FAC1C12CD12C20ECE22E2FE794
:1027C000F22EDCC19E3040F42850310981E001C076
:1027D000880F2A95EAF7CDCD2E503109F7CFCE01DB
:1027E00001960E94B9077CCE61E671E0CE010196A8
:1027F0000E94210BBE016F5F7F4FCE0107960E94A2
:10280000BD0A182FCE0101960E94CB07112309F4AF
:1028100048C070E060E0CE0107960E949D078C01E1
:102820008F3F980709F4F2CE9C0145E050E0BE01CD
:10283000695F7F4FCE0101960E94750BCE01019614
:102840000E94D3076B01CE0101960E94CB07A8011D
:102850004F5F5F4FBE01695F7F4FCE0101960E94BF
:10286000CA0BCE0101960E94D3074B018B01CE010A
:1028700001960E94CB0761E01C141D040CF060E07F
:1028800080910B010E94B700B401809109010E9460
:10289000190381E0101611060CF080E08093FC0112
:1028A000B5CE67E671E0CE0101960E94210BBE0114
:1028B0006F5F7F4FCE0107960E94BD0A182FCE0191
:1028C00001960E94CB071123F1F044E050E0BE01D5
:1028D000695F7F4FCE0101960E94CA0BCE0101961F
:1028E0000E94D3076B01CE0101960E94CB07809115
:1028F00007011C141D0424F4B6010E94210186CE98
:102900000E94EE0383CE6FE971E0CE0101960E9432
:10291000210BBE016F5F7F4FCE0107960E94BD0A5B
:10292000182FCE0101960E94CB071123D1F01A82F5
:1029300019821C821B821E821D826F81788561151F
:10294000710531F04B855C85CE0101960E94000B2C
:10295000CE0101960E94D60BCE0101960E94CB07B4
:1029600055CE64EA71E0CE0101960E94210BBE01B2
:102970006F5F7F4FCE0107960E94BD0A182FCE01D0
:1029800001960E94CB07112309F440CE81E00E94FA
:10299000E9093CCE61E671E0CE0101960E94210B6F
:1029A000BE016F5F7F4FCE0107960E94BD0A182FB0
:1029B000CE0101960E94CB07112309F448C070E0B4
:1029C00060E0CE0107960E949D078C010F3F100723
:1029D00009F4B6CE980145E050E0BE01695F7F4F33
:1029E000CE0101960E94750BCE0101960E94D3077D
:1029F0006B01CE0101960E94CB07A8014F5F5F4F8C
:102A0000BE01695F7F4FCE0101960E94CA0BCE01C5
:102A100001960E94D3074B018B01CE0101960E94C3
:102A2000CB0761E01C141D040CF060E080910B01E9
:102A30000E94B700B401809109010E94190381E04E
:102A4000101611060CF080E08093FC0179CE67E649
:102A500071E0CE0101960E94210BBE016F5F7F4F96
:102A6000CE0107960E94BD0A182FCE0101960E9442
:102A7000CB071123F1F044E050E0BE01695F7F4FC6
:102A8000CE0101960E94CA0BCE0101960E94D30787
:102A90006B01CE0101960E94CB07809107011C14A7
:102AA0001D0424F4B6010E9421014ACE0E94EE03C7
:102AB00047CE6FE971E0CE0101960E94210BBE0165
:102AC0006F5F7F4FCE0107960E94BD0A182FCE017F
:102AD00001960E94CB071123D1F01A8219821C8221
:102AE0001B821E821D826F8178856115710531F010
:102AF0004B855C85CE0101960E94000BCE010196AC
:102B00000E94D60BCE0101960E94CB0719CE64EA33
:102B100071E0CE0101960E94210BBE016F5F7F4FD5
:102B2000CE0107960E94BD0A182FCE0101960E9481
:102B3000CB07112309F404CE80E00E94E90900CEFE
:102B4000F801618170E090E080E00E9413172DECA5
:102B50003CEC4CEC5DE30E9472176B017C01D801E8
:102B60006C9170E090E080E00E9413179B01AC0133
:102B7000C701B6010E946B186B017C01C8010E945D
:102B80004506882309F487C0D80116968C911697BC
:102B90008C3009F4B8C0D0F48B3091F1412C512C19
:102BA00080EC682E8FE7782E56C0F8016081718125
:102BB00076276727762790E080E00E9411172DEC9A
:102BC0003CEC4CEC5DE30E947217D6CF855182300D
:102BD00028F7F801F281FD876F2F70E0762F6627C6
:102BE00066277F7713968C91682B90E080E00E9497
:102BF00011172DEC3CEC4CEC5DE30E947217A1C068
:102C0000F801628170E090E080E00E9411172B01D2
:102C10003C01D80113961C9117FF0AC0AC019B011F
:102C200060E070E080E89FEB0E946A182B013C0195
:102C30001F70612F70E090E080E00E9413172DEC70
:102C40003CEC4CEC5DE30E947217A30192010E94E0
:102C50006B182B013C01A7019601C701B6010E9428
:102C60007D19811118C0A3019201C301B2010E9414
:102C70007D19811110C0C092F201D092F301E0924F
:102C8000F401F092F5014092EE015092EF01609252
:102C9000F0017092F1018091FC01882341F1809153
:102CA000FD019091FE01A091FF01B09100020097FB
:102CB000A105B105E1F0881A990AAA0ABB0AE9EB55
:102CC0008E16EBE09E06A104B10488F070E060E08F
:102CD000809109010E94190360E080910B010E941C
:102CE000B700809107010E94EE031092FC012114AD
:102CF000310409F4BBCB0E94B904882309F4B6CB94
:102D00000E940000B3CBF801F281FD876F2F70E0C5
:102D100090E080E00E9411172B013C01D80113962E
:102D20006C916F7070E090E080E00E9413172DECC2
:102D30003CEC4CEC5DE30E947217A30192010E94EF
:102D40006B182B013C01BD85B7FF85CF77FA7094D6
:102D500077F8709480CF80E391E09093B9028093EC
:102D6000B8028091EC019091ED01885B924071F482
:102D7000E091CB02F091CC0290818091CD028095C0
:102D8000892380831092ED011092EC0108951F9326
:102D9000FC0199278827BC01E89411911032E9F3CE
:102DA000193010F01E30C8F31B3251F01D3249F4B7
:102DB000689406C00E94EE16610F711D811D911D61
:102DC000119110531A30B0F33EF4909580957095A0
:102DD00061957F4F8F4F9F4F1F910895592F482F17
:102DE000372F262F660F771F881F991F660F771FB3
:102DF000881F991F620F731F841F951F660F771F0F
:102E0000881F991F089591110C94DF17803219F0D3
:102E100089508550C8F708950E944E1708F481E044
:102E20000895E89409C097FB3EF4909580957095BD
:102E300061957F4F8F4F9F4F9923A9F0F92F96E906
:102E4000BB279395F695879577956795B795F1117B
:102E5000F8CFFAF4BB0F11F460FF1BC06F5F7F4F18
:102E60008F4F9F4F16C0882311F096E911C077232A
:102E700021F09EE8872F762F05C0662371F096E833
:102E8000862F70E060E02AF09A95660F771F881F02
:102E9000DAF7880F9695879597F90895990F0008A6
:102EA000550FAA0BE0E8FEEF16161706E807F9071C
:102EB000C0F012161306E407F50798F0621B730BB7
:102EC000840B950B39F40A2661F0232B242B252B38
:102ED00021F408950A2609F4A140A6958FEF811DDB
:102EE000811D08950E9485170C94F9170E94EB1715
:102EF00038F00E94F21720F0952311F00C94E2179D
:102F00000C94E81711240C942D180E940A1870F3E1
:102F1000959FC1F3950F50E0551F629FF001729F7E
:102F2000BB27F00DB11D639FAA27F00DB11DAA1F8D
:102F3000649F6627B00DA11D661F829F2227B00DDA
:102F4000A11D621F739FB00DA11D621F839FA00D65
:102F5000611D221F749F3327A00D611D231F849FB5
:102F6000600D211D822F762F6A2F11249F5750400C
:102F70009AF0F1F088234AF0EE0FFF1FBB1F661F87
:102F8000771F881F91505040A9F79E3F510580F050
:102F90000C94E2170C942D185F3FE4F3983ED4F3A1
:102FA000869577956795B795F795E7959F5FC1F7F4
:102FB000FE2B880F911D9695879597F9089599276F
:102FC0008827089597F99F6780E870E060E008958A
:102FD0009FEF80EC089500240A9416161706180631
:102FE0000906089500240A9412161306140605060D
:102FF0000895092E0394000C11F4882352F0BB0F9E
:1030000040F4BF2B11F460FF04C06F5F7F4F8F4F00
:103010009F4F089557FD9058440F551F59F05F3F3B
:1030200071F04795880F97FB991F61F09F3F79F0EA
:1030300087950895121613061406551FF2CF46956C
:10304000F1DF08C0161617061806991FF1CF8695EE
:103050007105610508940895E894BB2766277727D2
:10306000CB0197F908952F923F924F925F926F9202
:103070007F928F929F92AF92BF92CF92DF92EF9208
:10308000FF920F931F93CF93DF93CDB7DEB7CA1B89
:10309000DB0B0FB6F894DEBF0FBECDBF09942A88B4
:1030A000398848885F846E847D848C849B84AA845C
:1030B000B984C884DF80EE80FD800C811B81AA81E9
:1030C000B981CE0FD11D0FB6F894DEBF0FBECDBFB4
:1030D000ED0108955058BB27AA270E9482180C942E
:1030E000F9170E94EB1738F00E94F21720F039F41C
:1030F0009F3F19F426F40C94E8170EF4E095E7FBD3
:103100000C94E217E92F0E940A1858F3BA176207C5
:1031100073078407950720F079F4A6F50C942C1812
:103120000EF4E0950B2EBA2FA02D0B01B9019001E2
:103130000C01CA01A0011124FF27591B99F0593F26
:1031400050F4503E68F11A16F040A22F232F342F6E
:103150004427585FF3CF469537952795A795F040BC
:103160005395C9F77EF41F16BA0B620B730B840BD1
:10317000BAF09150A1F0FF0FBB1F661F771F881F89
:10318000C2F70EC0BA0F621F731F841F48F48795E1
:1031900077956795B795F7959E3F08F0B0CF9395D3
:1031A000880F08F09927EE0F9795879508950E944C
:1031B000EB180C94F9170E94F21758F00E94EB17C5
:1031C00040F029F45F3F29F00C94E21751110C9460
:1031D0002D180C94E8170E940A1868F39923B1F38C
:1031E000552391F3951B550BBB27AA27621773072D
:1031F000840738F09F5F5F4F220F331F441FAA1FC1
:10320000A9F335D00E2E3AF0E0E832D0915050407C
:10321000E695001CCAF72BD0FE2F29D0660F771F2A
:10322000881FBB1F261737074807AB07B0E809F010
:10323000BB0B802DBF01FF2793585F4F3AF09E3F95
:10324000510578F00C94E2170C942D185F3FE4F3CD
:10325000983ED4F3869577956795B795F7959F5FD8
:10326000C9F7880F911D9695879597F90895E1E024
:10327000660F771F881FBB1F621773078407BA0783
:1032800020F0621B730B840BBA0BEE1F88F7E095DE
:1032900008950E94121888F09F5798F0B92F992727
:1032A000B751B0F0E1F0660F771F881F991F1AF031
:1032B000BA95C9F714C0B13091F00E942C18B1E052
:1032C00008950C942C18672F782F8827B85F39F051
:1032D000B93FCCF3869577956795B395D9F73EF4CA
:1032E00090958095709561957F4F8F4F9F4F089572
:1032F0000E944E1708F48FEF08950E944E17880B16
:10330000990B0895A1E21A2EAA1BBB1BFD010DC04B
:10331000AA1FBB1FEE1FFF1FA217B307E407F50785
:1033200020F0A21BB30BE40BF50B661F771F881F61
:10333000991F1A9469F760957095809590959B01F7
:10334000AC01BD01CF010895052E97FB1EF400943A
:103350000E94BB1957FD07D00E94821907FC03D0B9
:103360004EF40C94BB1950954095309521953F4FE4
:103370004F4F5F4F089590958095709561957F4F61
:103380008F4F9F4F0895EE0FFF1F0590F491E02D92
:1033900009940F931F93CF93DF938230910510F41C
:1033A00082E090E0E091D902F091DA0230E020E092
:1033B000B0E0A0E0309799F42115310509F44AC036
:1033C000281B390B24303105D8F58A819B81611582
:1033D000710589F1FB0193838283FE0111C0408155
:1033E00051810281138148175907E0F048175907A6
:1033F00099F4109761F012960C93129713961C9300
:103400003296CF01DF91CF911F910F9108950093D4
:10341000D9021093DA02F4CF2115310551F0421789
:10342000530738F0A901DB019A01BD01DF01F80162
:10343000C1CFEF01F9CF9093DA028093D902CDCFBB
:10344000FE01E20FF31F81939193225031093983DA
:103450002883D7CF2091D7023091D802232B41F473
:1034600020911601309117013093D8022093D70292
:1034700020911401309115012115310541F42DB72A
:103480003EB74091180150911901241B350BE09172
:10349000D702F091D802E217F307A0F42E1B3F0BDE
:1034A0002817390778F0AC014E5F5F4F24173507B6
:1034B00048F04E0F5F1F5093D8024093D70281937C
:1034C00091939FCFF0E0E0E09CCFCF93DF93009704
:1034D000E9F0FC01329713821282A091D902B091D7
:1034E000DA02ED0130E020E01097A1F42081318173
:1034F000820F931F2091D7023091D80228173907E5
:1035000009F061C0F093D802E093D702DF91CF9128
:103510000895EA01CE17DF07E8F54A815B819E0135
:1035200041155105B1F7E901FB83EA8349915991AE
:10353000C40FD51FEC17FD0761F4808191810296BD
:10354000840F951FE90199838883828193819B83EE
:103550008A83F0E0E0E012968D919C91139700979A
:10356000B9F52D913C911197CD010296820F931FD1
:103570002091D7023091D8022817390739F63097B1
:1035800051F51092DA021092D902B093D802A093AA
:10359000D702BCCFD383C28340815181840F951F52
:1035A000C817D90761F44E5F5F4F88819981480F32
:1035B000591F518340838A819B8193838283211584
:1035C000310509F0B0CFF093DA02E093D9029ECF33
:1035D000FD01DC01C0CF13821282D7CFB0E0A0E0A2
:1035E000E4EFFAE10C9435188C01009751F4CB010B
:1035F0000E94C9198C01C801CDB7DEB7E0E10C9477
:103600005118FC01E60FF71F9C0122503109E21707
:10361000F30708F49DC0D901CD91DC911197C6172D
:10362000D70798F0C530D10530F3CE01049786173F
:10363000970708F3C61BD70B2297C193D1936D93BD
:103640007C93CF010E94651AD6CF5B01AC1ABD0AEC
:103650004C018C0E9D1EA091D902B091DA02512C22
:10366000412CF12CE12C109731F58091D7029091EB
:10367000D8028815990509F05CC04616570608F06F
:1036800058C08091140190911501009741F48DB7B5
:103690009EB74091180150911901841B950BE817B2
:1036A000F90708F055C0F093D802E093D702F9016A
:1036B00071836083A0CF8D919C91119712966C902D
:1036C000129713967C901397A815B90559F56C01BC
:1036D00042E0C40ED11CCA14DB0420F1AC014A192B
:1036E0005B09DA011296159780F06282738251832A
:1036F0004083D9016D937C93E114F10471F0D701FB
:103700001396FC93EE93129776CF22968C0F9D1F03
:10371000F90191838083F301EFCFF093DA02E09314
:10372000D90269CF4816590608F42C017D01D3014E
:103730009ACFCB010E94C9197C01009749F0AE01D4
:10374000B8010E94AB1BC8010E94651A870153CFC4
:1037500010E000E050CFFB01DC0102C001900D92AF
:1037600041505040D8F70895FC018191861721F00F
:103770008823D9F7992708953197CF010895FB0140
:10378000DC0101900D920020E1F70895FB01DC01BE
:103790004150504030F08D910190801919F4002073
:1037A000B9F7881B990B0895FB0151915523A9F096
:1037B000BF01DC014D9145174111E1F759F4CD01ED
:1037C0000190002049F04D9140154111C9F3FB01D2
:1037D0004111EFCF81E090E00197089510E0C3E63A
:1037E000D0E004C0FE010E94C3192196C436D1075F
:0637F000C9F7F894FFCFB9
:1037F600010F000E0003000400060007000B000A7C
:10380600000900FF0000DB02800000000000EF045A
:103816004F047C043C05AD048B049F0400000000AB
:1038260075054F0408067405D105E7055C050D0A04
:10383600006E616E00696E66006F766600483A003B
:103846002C543A002C4C3A002C533A005247423A38
:103856000050554D503A0042555A3A004448543AA1
:10386600004C49473A004100534F494C3A004C49F5
:103876004748545F545950453A00414F00444F0061
:10388600444542554720EC8898EC8BA03A200043EB
:0A38960046473A0050494E47000033
:00000001FF
