:100000000C9464000C948C000C948C000C94641080
:100010000C9464100C9464100C948C000C94B00F2D
:100020000C948C000C948C000C948C000C948C0020
:100030000C948C000C948C000C948C000C948C0010
:100040000C94660F0C948C000C9432100C940C10D1
:100050000C948C000C948C000C948C000C948C00F0
:100060000C948C000C948C000000000024002700ED
:100070002A0000000008000201000003040700003D
:1000800000000000000002000000002300260029FC
:100090000000000000250028002B000404040404D4
:1000A0000404040202020202020303030303030125
:1000B00002040810204080010204081020010204FC
:1000C00008102000DC10911711241FBECFEFD8E0DC
:1000D000DEBFCDBF22E0AAEBB1E001C01D92AB3E76
:1000E000B207E1F711E0A0E0B1E0E2ECF9E302C011
:1000F00005900D92AA3BB107D9F710E0C3E6D0E016
:1001000004C02197FE010E94A91AC236D107C9F77F
:100110000E9487110C94D41C0C9400009B01AC012C
:100120001092E3021092E2021092E1021092E002B9
:100130001092DF021092DE0260E079E08DE390E041
:100140000E948A1AC90103979093E5028093E40202
:100150009091D402963108F058C0B9017695679510
:100160006431710508F481C0635171097093DF0235
:100170006093DE02B901655071097093E1026093EA
:10018000E002B901660F771F260F371F36952795B6
:10019000369527952C5031093093E3022093E202E3
:1001A0002091680084E0983048F031E09E3008F4F7
:1001B00030E081E001C0880F3A95EAF7822B809306
:1001C00068002DE630E0983050F02BE630E09E30AD
:1001D00030F02CE630E0963110F030E020E0309343
:1001E000DC022093DB02292F30E0983008F040C079
:1001F00081E001C0880F9A95EAF78093DD02809133
:10020000E4029091E5020197F1F78091E20290916A
:10021000E302892B49F1E0912902F0912A0282E060
:10022000E83CF80709F1309739F0A389B4899C912B
:100230008589809589238C938091E6028E7F8093B7
:10024000E602109228021092270288EC92E0909326
:100250002A0280932902E091DB02F091DC02808186
:100260009091DD02892B8083089561E070E07ECF5C
:100270009E3040F42850310981E001C0880F2A9552
:10028000EAF7BBCF2E503109F7CF833081F028F445
:10029000813099F08230A9F008958730A9F0883034
:1002A000C9F08430B1F4809180008F7D03C08091CB
:1002B00080008F7780938000089584B58F7784BD08
:1002C000089584B58F7DFBCF8091B0008F778093A8
:1002D000B00008958091B0008F7DF9CF1F93CF9328
:1002E000DF93282F30E0F901EE58FF4F8491F90198
:1002F000E155FF4FD491F901E556FF4FC491CC234E
:10030000A9F0162F81110E944501EC2FF0E0EE0FAD
:10031000FF1FEF56FF4FA591B4918FB7F894EC9162
:10032000111108C0D095DE23DC938FBFDF91CF91F0
:100330001F910895DE2BF8CFCF93DF9390E0FC015F
:10034000E155FF4F249185569F4FFC0184918823EE
:10035000C9F090E0880F991FFC01E859FF4FA59163
:10036000B491FC01EF56FF4FC591D49161110DC0BE
:100370009FB7F8948C91209582238C9388812823B1
:1003800028839FBFDF91CF910895623051F49FB7CA
:10039000F8943C91822F809583238C93E8812E2BB7
:1003A000EFCF8FB7F894EC912E2B2C938FBFEACF21
:1003B0008F929F92AF92BF92CF92DF92EF92FF9275
:1003C000CF936B0190911301891769F09F3F09F456
:1003D0006FC0CF91FF90EF90DF90CF90BF90AF9024
:1003E0009F908F900895E6E8F0E0C491C7FDF1CFAB
:1003F00061E00E949C01CC2319F0C23009F02CC1AD
:10040000F12CE12C60E072E18AE790E0A70196010F
:100410000E948A1A49015A01DA01C9010197A1090A
:10042000B1098F3F9105A105B10509F00CF4F8C0A1
:1004300060E472E48FE090E0A70196010E948A1ABE
:100440002150310941095109C23009F0AAC082E0A6
:100450002F3F31054105510509F00CF492C160E9C7
:1004600070ED83E090E0A70196010E948A1A215066
:1004700031094109510983E02F3F310541055105FB
:1004800009F00CF47EC168E478EE81E090E0A70109
:1004900096010E948A1A21503109410951092F3FC2
:1004A00031054105510511F00CF099C084E069C196
:1004B00080931301E6E8F0E0C491CF3F09F489CFBF
:1004C000C13039F148F0C23009F445C0C7FD81CFD1
:1004D00061E00E949C0191CF14BC15BC94B5926060
:1004E00094BD95B5916095BD282F30E0F901E55692
:1004F000FF4FE491F0E0EE0FFF1FEF56FF4F4591E5
:100500005491F901E155FF4FE491E0931A02C0E0E4
:100510006FCF1092800010928100909181009860BE
:100520009093810090918100916090938100282F99
:1005300030E0F901E556FF4FE491F0E0EE0FFF1FC8
:10054000EF56FF4F45915491F901E155FF4FE4916A
:10055000E09319024DCF1092B0001092B10090912B
:10056000B00092609093B0009091B1009160909330
:10057000B100282F30E0F901E556FF4FE491F0E09B
:10058000EE0FFF1FEF56FF4F459154915093180205
:1005900040931702F901E155FF4FE491E0931602F1
:1005A00027CF2F3F31054105510509F00CF452C00A
:1005B00068E478EE81E090E0A70196010E948A1A33
:1005C0002150310941095109CC2309F4AFC02F3F13
:1005D00031054105510511F00CF0B0C067CF64E260
:1005E00074EF80E090E0A70196010E948A1A2150E2
:1005F00031094109510985E02F3F31054105510578
:1006000009F008F4BEC062E17AE780E090E0A7015B
:1006100096010E948A1A21503109410951099CC052
:100620009C0181E0C111ADC095B5987F892B85BD36
:1006300027BD8FEF9FEFDC0180932302909324026C
:10064000A0932502B093260280916E008260809371
:100650006E00BFCE82E0E6CFF12CE12C60E072E1CB
:100660008AE790E0A70196010E948A1A2150310979
:100670004109510991E02115310581E048075105F3
:100680006CF068E478EE81E090E0A70196010E94AA
:100690008A1A215031094109510993E0C13009F00A
:1006A00076C080918100887F892B80938100309370
:1006B0008900209388008FEF9FEFDC0180931F0259
:1006C00090932002A0932102B093220280916F00A8
:1006D000826080936F007DCE2093B3008FEF9FEFF9
:1006E000DC0180931B0290931C02A0931D02B09327
:1006F0001E02809170008260809370006ACE84E058
:100700002F3F31054105510509F008F48DCF9AE0DE
:10071000B594A794979487949A95D1F7A5019401DD
:10072000215031094109510985E07ECF83E02F3FF7
:1007300031054105510509F00CF476CF62E17AE705
:1007400080E090E0A70196010E948A1A21503109A9
:1007500041095109CC2399F286E02F3F310541052B
:10076000510579F070F08AE0B594A7949794879436
:100770008A95D1F7A5019401215031094109510908
:1007800087E09091B100987F892B8093B100C130B0
:1007900009F48DCFC23009F49FCFC1111ACE48CFD2
:1007A0001F93CF93DF93182FEB0161E00E949C0110
:1007B000209739F460E0812FDF91CF911F910C9445
:1007C0006E01CF3FD10511F461E0F5CFE12FF0E0EC
:1007D000EE58FF4FE491E33031F140F4E130B1F0F5
:1007E000E230E1F0C038D1057CF7E4CFE73029F101
:1007F000E83059F1E430B1F7809180008062809355
:100800008000D0938B00C0938A0004C084B58068B8
:1008100084BDC7BDDF91CF911F91089584B58062DB
:1008200084BDC8BDF7CF8091800080688093800030
:10083000D0938900C0938800EDCF8091B00080688C
:100840008093B000C093B300E5CF8091B000806288
:100850008093B000C093B400DDCF8E3008F08E508E
:100860008770806480937C0080917A00806480939C
:100870007A0080917A0086FDFCCF8091780090917B
:10088000790008953FB7F894809112029091130275
:10089000A0911402B091150226B5A89B05C02F3F68
:1008A00019F00196A11DB11D3FBFBA2FA92F982F96
:1008B0008827BC01CD01620F711D811D911D42E091
:1008C000660F771F881F991F4A95D1F708958F9259
:1008D0009F92AF92BF92CF92DF92EF92FF924B0125
:1008E0005C010E9442046B017C010E9442046C196D
:1008F0007D098E099F09683E734081059105A8F323
:1009000021E0821A9108A108B10888EEC80E83E0A0
:10091000D81EE11CF11C81149104A104B10429F733
:10092000FF90EF90DF90CF90BF90AF909F908F900F
:1009300008952FB7F89460910E0270910F02809184
:100940001002909111022FBF089590911301891305
:100950000BC0E6E8F0E0E4919FEF90931301E130E3
:1009600049F028F0E23061F060E00C946E011092E2
:100970006E00FACF90916F009D7F90936F00F4CF3F
:10098000909170009D7F9093700091E09093B000E3
:100990009091B100987F94609093B1001092B30051
:1009A000E3CF0F931F93CF93DF93EC010E94990441
:1009B000688779878A879B87E881F9810284F38534
:1009C000E02DCE01099597FF15C00E949904088576
:1009D00019852A853B85601B710B820B930B0C815B
:1009E0001D812E813F81601771078207930720F3D5
:1009F0008FEF9FEFDF91CF911F910F910895DC0151
:100A0000ED91FC910190F081E02D0994AF92BF929D
:100A1000CF92DF92EF92FF920F931F93CF93DF93CA
:100A20006C017B018B01040F151FEB015E01AE18F9
:100A3000BF08C017D10759F06991D601ED91FC911B
:100A40000190F081E02DC6010995892B79F7C50148
:100A5000DF91CF911F910F91FF90EF90DF90CF909A
:100A6000BF90AF900895FC01538D448D252F30E049
:100A7000842F90E0821B930B541710F0CF960895AB
:100A800001970895FC01918D828D981761F0A28DD8
:100A9000AE0FBF2FB11D5D968C91928D9F5F9F739E
:100AA000928F90E008958FEF9FEF0895FC01918D54
:100AB000828D981731F0828DE80FF11D858D90E0C1
:100AC00008958FEF9FEF0895FC01918D228D892F5E
:100AD00090E0805C9F4F821B91098F739927089546
:100AE0008BE292E00E94640521E0892B09F420E06A
:100AF000822F089580E090E0892B29F00E947005F4
:100B000081110C9400000895FC01A48DA80FB92F49
:100B1000B11DA35ABF4F2C91848D90E001968F7325
:100B20009927848FA689B7892C93A089B1898C9144
:100B3000837080648C93938D848D981306C0028893
:100B4000F389E02D80818F7D80830895EF92FF925D
:100B50000F931F93CF93DF93EC0181E0888F9B8DE0
:100B60008C8D98131AC0E889F989808185FF15C09A
:100B70009FB7F894EE89FF896083E889F9898081BD
:100B80008370806480839FBF81E090E0DF91CF918C
:100B90001F910F91FF90EF900895F62E0B8D10E0AE
:100BA0000F5F1F4F0F731127E02E8C8D8E110CC01D
:100BB0000FB607FCFACFE889F989808185FFF5CF68
:100BC000CE010E948405F1CFEB8DEC0FFD2FF11DBE
:100BD000E35AFF4FF0829FB7F8940B8FEA89FB89A5
:100BE00080818062CFCFCF93DF93EC01888D882303
:100BF000B9F0AA89BB89E889F9898C9185FD03C080
:100C0000808186FD0DC00FB607FCF7CF8C9185FF64
:100C1000F2CF808185FFEDCFCE010E948405E9CF20
:100C2000DF91CF9108952091290230912A0228174F
:100C3000390771F49091270280912802981741F0AA
:100C4000E0912702F0E0E654FE4F808190E00895A5
:100C50008FEF9FEF08950895EF92FF920F931F93E8
:100C6000CF93DF93DC015C96ED90FC905D97E114EF
:100C7000F10479F481E090E013969C938E9312979F
:100C800090E080E0DF91CF911F910F91FF90EF9066
:100C900008955196ED91FC91529750968C915097F2
:100CA000982F90950FB75E962C915E97122F127029
:100CB00021FD6095F8942081112319F1282B2083C0
:100CC000E7012197F1F728E0462F50E0308160FFDF
:100CD0001AC0382B3083E7012197F1F7BA017595D7
:100CE0006795215089F7112381F0808189238083C2
:100CF0000FBF5C968D919C910197F1F781E090E098
:100D0000C1CF2923DCCF3923E5CF9081892BEFCFC9
:100D10002091290230912A022817390761F4809125
:100D200028022091270290E0805C9F4F821B91094E
:100D30008F739927089590E080E00895209129020B
:100D400030912A0228173907B9F49091270280912F
:100D50002802981789F0E0912702F0E0E654FE4F50
:100D600080812091270230E02F5F3F4F2F73332780
:100D70002093270290E008958FEF9FEF089590E071
:100D800080E00895CF92DF92EF92FF92CF93DF93AE
:100D9000DC011796CC911797D0E06111DC2F1896E3
:100DA0002C91189730E0220F331F29573F4F50E006
:100DB00040E0F90185919491FC01F080BA0190E046
:100DC00080E0EF2DEC23ED1310C04F5F5F4F1D96B9
:100DD000CD90DD90ED90FC9050976C157D058E05C3
:100DE0009F0538F36FEF7FEFCB01DF91CF91FF903D
:100DF000EF90DF90CF9008958F929F92AF92BF9225
:100E0000CF92DF92EF92FF920F931F93CF93DF93D6
:100E1000CDB7DEB7C054D1400FB6F894DEBF0FBED9
:100E2000CDBF8C010E949904F801C184D284E3846F
:100E3000F4849B01AC012C193D094E095F0969013D
:100E40007A0130EDC31637E0D306E104F104A8F4CB
:100E50008189C05CDE4F0FB6F894DEBF0FBECDBFF8
:100E6000DF91CF911F910F91FF90EF90DF90CF9086
:100E7000BF90AF909F908F9008956187728783870E
:100E800094871482138212821182108262E085811B
:100E90000E949C0161E070E080E090E00E946704A5
:100EA00061E0F80185810E949C0160E0F801858184
:100EB0000E946E01F80186818551823028F58BE20F
:100EC00091E10197F1F762E0F80185810E949C01B0
:100ED000F801828990E08230910538F0880F991FDF
:100EE000880F991F05970197F1F7F89460E0C80102
:100EF0000E94C2066F3F7F4F8F4F9F4F61F4F801F2
:100F0000118A789480E0A5CF64E170E080E090E001
:100F10000E946704D8CF61E0C8010E94C2066F3FFB
:100F20007F4F8F4F9F4F59F39E012F5F3F4F7901A6
:100F30005E013FEBA31A3EEFB30A670160E0C80110
:100F40000E94C206F601608371838283938361E00D
:100F5000C8010E94C206F601648375838683978365
:100F6000F8E0CF0ED11CCA14DB0441F7789430E0CE
:100F700020E0F70180809180A280B3804481558178
:100F800066817781FFEF8F169F06AF06BF0631F0AF
:100F90004F3F8FEF58076807780719F4F801118A57
:100FA000B1CFF90183E0F595E7958A95E1F7E00F78
:100FB000F11F8081880F84169506A606B706F0F00B
:100FC00080832F5F3F4FF8E0EF0EF11C2832310590
:100FD00081F6F801448120818181280F3327331F56
:100FE0008281280F311D8381820F932F911D9927B4
:100FF0004817190699F681E0818B2BCF8160E0CFED
:10100000EF92FF920F931F93CF93DF93E0900B012A
:1010100061E08E2D0E949C01F090090161E08F2D0E
:101020000E949C010091070161E0802F0E949C01B9
:101030001091110161E0812F0E949C01D0910F015C
:1010400061E08D2F0E949C01C0910D0161E08C2F09
:101050000E949C0180910001882329F060E080912A
:1010600003010E949C0160E08E2D0E946E0170E0E1
:1010700060E08F2D0E94D003802F0E94A50470E0B5
:1010800060E0812F0E94D00370E060E08D2F0E940D
:10109000D00370E060E08C2FDF91CF911F910F9112
:1010A000FF90EF900C94D003CF93DF93FC01248149
:1010B00035816217730788F49B01C081D1816CE28E
:1010C00070E0CE01820F931F0E949A1C009729F0B6
:1010D0008C1B9D0BDF91CF9108958FEF9FEFFACF7F
:1010E000CF93DF93EC0188819981009711F00E94E2
:1010F0004B1B198218821D821C821B821A82DF916F
:10110000CF910895FC0180819181009711F00C949A
:101110004B1B0895FB0101900020E9F73197AF01C7
:10112000461B570BDC01ED91FC910280F381E02D11
:1011300009948F929F92AF92BF92EF92FF920F937A
:101140001F93CF93DF93CDB7DEB7A1970FB6F89477
:10115000DEBF0FBECDBF7C01FA01CB0119A2223048
:1011600008F42AE08E010F5D1F4F822E912CB12CC6
:10117000A12CBF01A50194010E94681AF901CA01BE
:101180006A300CF5605DD8016E938D01232B242B02
:10119000252B79F790E080E0109721F0BD01C70181
:1011A0000E948A08A1960FB6F894DEBF0FBECDBF8D
:1011B000DF91CF911F910F91FF90EF90BF90AF9073
:1011C0009F908F900895695CDECFCF92DF92EF926F
:1011D000FF920F931F93CF93DF938C016B01770FD7
:1011E000EE08FF08F7FE21C06DE20E94FF04EC014B
:1011F00044275527BA014C195D096E097F092AE079
:10120000C8010E949908C80FD91F6DE971E0C80193
:101210000E948A088C0F9D1FDF91CF911F910F9123
:10122000FF90EF90DF90CF9008952AE0B701A601DC
:101230000E949908EC01E9CFCF92DF92EF92FF92E2
:101240000F931F93CF93DF936B01770FEE08FF0887
:10125000F7FE1BC0EC016DE20E94FF048C014427E5
:101260005527BA014C195D096E097F092AE0CE01A4
:101270000E949908800F911FDF91CF911F910F91CC
:10128000FF90EF90DF90CF9008952AE0B701A6017C
:10129000DF91CF911F910F91FF90EF90DF90CF9052
:1012A0000C9499082F923F924F925F926F927F9287
:1012B0008F929F92AF92BF92CF92DF92EF92FF9266
:1012C0001F93CF93DF93EC016A017B01722EAB0178
:1012D0009601CB01B6010E94631A6EE371E08111A1
:1012E00026C046015701E894B7F82FEF3FEF4FE7CC
:1012F0005FE7C501B4010E94631A81110CC02FEF92
:101300003FEF4FE75FE7C501B4010E94F21762E4C7
:1013100071E0181664F02FEF3FEF4FE75FE4C7016D
:10132000B6010E945E1A1816B4F466E471E0CE01AC
:10133000DF91CF911F91FF90EF90DF90CF90BF9002
:10134000AF909F908F907F906F905F904F903F9065
:101350002F900C948A082FEF3FEF4FE75FECC70107
:10136000B6010E94F21787FDE0CF20E030E0A9012E
:10137000C701B6010E94F217312C212C87FF09C04A
:101380006DE2CE010E94FF041C01F7FAF094F7F819
:10139000F09410E060E070E080E09FE3711641F0AF
:1013A00020E030E040E251E40E94BD191F5FF6CF1B
:1013B000A70196010E9451192B013C010E942F1A8E
:1013C0004B015C012AE0BC01A401CE010E949908F6
:1013D0007C01E20CF31C1123C1F1C501B4010E9490
:1013E000F7179B01AC01C301B2010E9450194B01D8
:1013F0005C016EE2CE010E94FF04E80EF91E11505E
:1014000020F120E030E040E251E4C501B4010E9447
:1014100058182B013C010E942F1A4B01B12CA12C12
:101420002AE0B501A401CE010E949908E80EF91E38
:10143000C501B4010E94F7179B01AC01C301B201C1
:101440000E9450194B015C01DACFC701DF91CF91A7
:101450001F91FF90EF90DF90CF90BF90AF909F9043
:101460008F907F906F905F904F903F902F90089556
:101470000C948A08EF92FF921F93CF93DF93182F5B
:10148000809103019091040120910001222309F42D
:101490006DC09C013327F901EE58FF4F8491F9018B
:1014A000E155FF4FD491F901E556FF4FC491C111A9
:1014B0004BC0CFEFD3E0809101010E942D047C014D
:1014C0006AE471E0112309F455C088EC92E00E94AF
:1014D000380A4091FE015091FF0160910002709125
:1014E000010222E088EC92E00E9452096DE471E072
:1014F00088EC92E00E94380A4091FA015091FB0179
:101500006091FC017091FD0122E088EC92E00E9464
:10151000520961E571E088EC92E00E94380ABE0150
:1015200088EC92E00E941C0965E571E088EC92E08D
:101530000E94380AB70188EC92E0DF91CF911F91A9
:10154000FF90EF900C94E50881110E944501EC2F6B
:10155000F0E0EE0FFF1FE957FF4FA591B491EC911A
:10156000DE2309F4A6CFD0E0C0E0A5CF0E942D0471
:10157000EC01A1CF8BE292E00E94380A4091FE017B
:101580005091FF01609100027091010222E08BE214
:1015900092E00E9452096DE471E08BE292E00E94B9
:1015A000380A4091FA015091FB016091FC01709161
:1015B000FD0122E08BE292E00E94520961E571E0B8
:1015C0008BE292E00E94380ABE018BE292E00E9418
:1015D0001C0965E571E08BE292E00E94380AB701D0
:1015E0008BE292E0AACFFC0180819181009711F0FB
:1015F0000C94AD1760E070E0CB010895AF92BF92FC
:10160000CF92DF92EF92FF920F931F93CF93DF93CE
:10161000DC01CD90DC901197C114D10439F01496FF
:10162000CD91DC918C017601209761F4DF91CF910F
:101630001F910F91FF90EF90DF90CF90BF90AF90F0
:10164000089575015701BFEFAB1ABB0AF7018081FE
:10165000082E000C990B0E94E917892B91F721970E
:10166000CC0DDD1D8881082E000C990B0E94E91716
:10167000892B29F0CE15DF0510F02197F3CFAE01AD
:101680004F5F5F4F4E195F09D80115965C934E93DB
:101690001497CE14DF0420F4B701C6010E94911CF8
:1016A000D801ED91FC91119714968D919C91E80FC2
:1016B000F91F1082BBCFCF93DF93DC0114962D91DD
:1016C0003C911597232B79F0FB01CD91DC91608142
:1016D0007181CE010E94BA1C009729F08C1B9D0BD2
:1016E000DF91CF9108958FEF9FEFFACFFB014481F7
:1016F0005581FC01248135812417350778F08081DC
:101700009181009759F0FB0160817181611571052C
:1017100029F00E94AC1C21E0892B09F020E0822FE7
:1017200008950F931F93CF93DF93EC0188819981E4
:10173000009759F02A813B812617370730F081E066
:10174000DF91CF911F910F9108958B016F5F7F4FB4
:101750000E94D41B009759F0998388831B830A83C6
:101760002C813D81232B59F7FC011082E8CF80E0CA
:10177000E7CFEF92FF920F931F93CF93DF9300D0A9
:10178000CDB7DEB78C0169831A82FC01E480F58055
:10179000FFEFEF1AFF0AB7010E94910B882381F037
:1017A000F8012081318184819581BE016F5F7F4F77
:1017B000820F931F0E94A51CF801F582E48281E04C
:1017C0000F900F90DF91CF911F910F91FF90EF90AD
:1017D0000895EF92FF920F931F93CF93DF93EC0145
:1017E0007B018A01BA010E94910B81110BC0CE01CD
:1017F0000E947008CE01DF91CF911F910F91FF9051
:10180000EF9008951D830C83B701888199810E9410
:10181000A51CF0CFFC011182108213821282158266
:101820001482FB0101900020E9F73197AF01461BBC
:10183000570B0C94E90BAF92BF92CF92DF92EF92CD
:10184000FF920F931F93CF93DF937C016B015A019B
:1018500089012417350720F48B2D5901042F182FE7
:101860006FE971E0C7010E940A0CD6011496CD9170
:10187000DC91AC16BD0620F50C171D0708F4E80135
:10188000D601ED91FC911197EC0FFD1F1081108294
:101890006D917C916A0D7B1D61157105E9F0FB016D
:1018A00001900020E9F73197AF01461B570BC701A4
:1018B0000E94E90BF60180819181C80FD91F18831E
:1018C000C701DF91CF911F910F91FF90EF90DF90B3
:1018D000CF90BF90AF900895C7010E947008EACFE3
:1018E000CF93DF93EC01FB01248135810E941B0C17
:1018F000CE01DF91CF9108952F923F924F925F9248
:101900006F927F928F929F92AF92BF92CF92DF920F
:10191000EF92FF920F931F93CF93DF93CDB7DEB774
:1019200060970FB6F894DEBF0FBECDBF8C018091DB
:1019300007010E94A50470E060E0809109010E9407
:10194000D00360E080910B010E946E0170E060E0C6
:10195000809111010E94D00370E060E080910F013E
:101960000E94D00370E060E080910D010E94D003DE
:1019700069E571E0CE0101960E940A0CBE016F5F1D
:101980007F4FC8010E945B0B7C01CE0101960E9433
:1019900082082FEFE216F20609F474C0B701C801FD
:1019A0000E9454084C013C018FEF681A780AB30179
:1019B000C8010E9454085C016C019FEFC91AD90A42
:1019C000B601C8010E9454089E878D872FEF8216AA
:1019D000920609F457C08FEFA816B80609F452C052
:1019E000A7014C5F5F4F9401B801CE0101960E94A0
:1019F0001B0CCE0101960E94F30A1B01788B6F87A6
:101A0000CE0101960E9482089501A301B801CE0182
:101A100001960E941B0CCE0101960E94F30A4B0115
:101A20003B01CE0101960E9482088D859E858F3FE5
:101A3000980709F4F2C19C01A601B801CE010196F4
:101A40000E941B0CCE0101960E94F30A7B01CE017D
:101A500001960E9482088F8598891816190624F429
:101A600030921201209211011614170424F490925E
:101A7000100180920F011E141F0424F4F0920E0135
:101A8000E0920D016EE571E0CE0101960E940A0C14
:101A9000BE016F5F7F4FC8010E945B0B7C01CE01CE
:101AA00001960E9482089FEFE916F90609F448C0E2
:101AB000B701C8010E9454085C016C012FEFC21AE3
:101AC000D20AB601C8010E9454084C018FEFA81633
:101AD000B806B1F1A7014B5F5F4F9501B801CE0188
:101AE00001960E941B0CCE0101960E94F30A2B0165
:101AF0005B01CE0101960E9482089FEF891699062C
:101B000009F492C19401A601B801CE0101960E9488
:101B10001B0CCE0101960E94F30A7B01CE010196B7
:101B20000E9482081A141B0424F450920C01409263
:101B30000B011E141F0424F4F0920A01E092090123
:101B400064E671E0CE0101960E940A0CBE016F5F4F
:101B50007F4FC8010E945B0B7C01CE0101960E9461
:101B600082082FEFE216F20609F1B701C8010E94C0
:101B70005408A7014C5F5F4F8F3F980709F45BC182
:101B80009C01B801CE0101960E941B0CCE0101966A
:101B90000E94F30A7B01CE0101960E9482081E1466
:101BA0001F0424F4F0920801E092070169E671E055
:101BB000CE0101960E940A0CBE016F5F7F4FC801E3
:101BC0000E945B0B7C01CE0101960E9482088FEF80
:101BD000E816F80609F1B701C8010E945408A701E8
:101BE0004C5F5F4F8F3F980709F42BC19C01B801F0
:101BF000CE0101960E941B0CCE0101960E94F30AB1
:101C00007B01CE0101960E9482081E141F0424F459
:101C1000F0920601E09205016EE671E0CE010196B8
:101C20000E940A0CBE016F5F7F4FC8010E945B0BD0
:101C30007C01CE0101960E9482088FEFE816F8061B
:101C400009F441C0B701C8010E945408A7014C5FC4
:101C50005F4F8F3F980709F4FAC09C01B801CE018D
:101C600001960E941B0C63E771E0CE0107960E946B
:101C70000A0CBE01695F7F4FCE0101960E94760B70
:101C8000F82ECE0107960E948208FF2009F4E5C0D5
:101C900041E050E0BE016F5F7F4FCE0107960E948A
:101CA000700CCE0107960E94F30A625F7F4F70931B
:101CB000040160930301CE0107960E948208CE01C1
:101CC00001960E94820865E771E0CE0101960E94AC
:101CD0000A0CBE016F5F7F4FC8010E945B0B7C0145
:101CE000CE0101960E9482088FEFE816F80609F4EB
:101CF00041C0B701C8010E945408A7014B5F5F4F64
:101D00008F3F980709F4B6C09C01B801CE01019637
:101D10000E941B0C63E771E0CE0107960E940A0C3B
:101D2000BE01695F7F4FCE0101960E94760BF82EAF
:101D3000CE0107960E948208FF2009F4A1C041E06D
:101D400050E0BE016F5F7F4FCE0107960E94700C7E
:101D5000CE0107960E94F30A625F7F4F70930201E3
:101D600060930101CE0107960E948208CE01019680
:101D70000E9482086BE771E0CE0101960E940A0C76
:101D8000BE016F5F7F4FC8010E945B0B7C01CE01DB
:101D900001960E9482088FEFE816F80619F1A70154
:101DA000455F5F4FB801CE0101960E94700C67E855
:101DB00071E0CE0107960E940A0CBE01695F7F4F59
:101DC000CE0101960E94760B182FCE0107960E9435
:101DD0008208112309F461C010920001CE0101961E
:101DE0000E9482080E94000860960FB6F894DEBF39
:101DF0000FBECDBFDF91CF911F910F91FF90EF905C
:101E0000DF90CF90BF90AF909F908F907F906F901A
:101E10005F904F903F902F900895A601B801CE019A
:101E200001960E94700C0ECEA601B801CE0101965B
:101E30000E94700C6ECEB801CE0101960E94700C0B
:101E4000A5CEB801CE0101960E94700CD5CEB80186
:101E5000CE0101960E94700C06CFCE0101960E9421
:101E6000F30A161617060CF02ACF7093040160933C
:101E7000030125CFB801CE0101960E94700C4ACF14
:101E8000CE0101960E94F30A161617060CF06ECFCB
:101E9000709302016093010169CF6AE871E0CE019D
:101EA00007960E940A0CBE01695F7F4FCE01019622
:101EB0000E94760B182FCE0107960E9482081123EC
:101EC00009F48CCF81E08093000188CF1F920F929C
:101ED0000FB60F9211242F933F938F939F93AF933D
:101EE000BF9380910E0290910F02A0911002B091C9
:101EF000110230910D0223E0230F2D3758F5019682
:101F0000A11DB11D20930D0280930E0290930F022C
:101F1000A0931002B09311028091120290911302CB
:101F2000A0911402B09115020196A11DB11D8093DC
:101F3000120290931302A0931402B0931502BF9162
:101F4000AF919F918F913F912F910F900FBE0F9066
:101F50001F90189526E8230F0296A11DB11DD2CF20
:101F60001F920F920FB60F9211242F933F934F930E
:101F70005F936F937F938F939F93AF93BF93EF93F1
:101F8000FF9380911B0290911C02A0911D02B091C1
:101F90001E02892B8A2B8B2BD1F190911602E09196
:101FA0001702F091180280818927808380911B029B
:101FB00090911C02A0911D02B0911E0218161906E4
:101FC0001A061B069CF480911B0290911C02A091A2
:101FD0001D02B0911E020197A109B10980931B0255
:101FE00090931C02A0931D02B0931E02FF91EF91EB
:101FF000BF91AF919F918F917F916F915F914F9121
:102000003F912F910F900FBE0F901F9018958091C8
:1020100013010E94A504EACF1F920F920FB60F92F0
:1020200011242F933F934F935F936F937F938F93DD
:102030009F93AF93BF93EF93FF938BE292E00E9445
:102040008405FF91EF91BF91AF919F918F917F9107
:102050006F915F914F913F912F910F900FBE0F9015
:102060001F9018951F920F920FB60F9211242F9365
:102070008F939F93EF93FF93E0913B02F0913C028B
:102080008081E0914102F091420282FD1BC090816B
:10209000809144028F5F8F7320914502821741F037
:1020A000E0914402F0E0E55DFD4F958F809344029E
:1020B000FF91EF919F918F912F910F900FBE0F90F5
:1020C0001F9018958081F4CF1F920F920FB60F9238
:1020D00011242F933F934F935F936F937F938F932D
:1020E0009F93AF93BF93EF93FF93E0912902F091F9
:1020F0002A02309749F0A685B7858585968D91FF90
:1021000014C09C918923A1F4FF91EF91BF91AF91ED
:102110009F918F917F916F915F914F913F912F91FF
:102120000F900FBE0F901F9018959C91892361F717
:10213000A389B4899C918589809589238C9386890C
:1021400097890197F1F7608D718DA685B7855585C3
:1021500038E020E0CB010197F1F7822F90E09595D0
:102160008795282F4C91452309F02068315091F72D
:10217000868D81FD20958091280290E001968F73D5
:10218000992730912702381799F0A0912802B0E0E2
:10219000A654BE4F2C9380932802828D938D019775
:1021A000F1F7A389B4898C919589892B8C93ACCF55
:1021B000868D8160868FF1CF10922E0210922D02B3
:1021C00088EE93E0A0E0B0E080932F02909330027D
:1021D000A0933102B09332022EE131E030932C0211
:1021E00020932B0225EC30E0309338022093370205
:1021F00024EC30E030933A022093390220EC30E0B6
:1022000030933C0220933B0221EC30E030933E02BD
:1022100020933D0222EC30E03093400220933F02B5
:1022200026EC30E0309342022093410210924402A7
:102230001092450210924602109247021092CB0271
:102240001092CA028093CC029093CD02A093CE024A
:10225000B093CF0280E391E09093C9028093C802CB
:102260001092DF021092DE021092E1021092E00260
:102270001092E3021092E2021092E5021092E40240
:102280006091E6026E7F6D7F6093E60266956170F5
:1022900081E0682785E00E946E0161E085E00E9490
:1022A0009C01E4EBF0E0E491E093D802E0EAF0E096
:1022B000E491F0E0EE0FFF1FEF56FF4F85919491F0
:1022C0009093DA028093D90260E082E00E949C0140
:1022D0008091E60281FD04C061E082E00E946E010F
:1022E00082E08093D402E1EBF0E0E491E093D50248
:1022F000EDE9F0E0E491F0E0EE0FFF1FE957FF4F4A
:10230000859194919093D7028093D6020895CF93AC
:10231000DF93CDB7DEB72D970FB6F894DEBF0FBEB3
:10232000CDBF789484B5826084BD84B5816084BD5E
:1023300085B5826085BD85B5816085BD80916E0063
:10234000816080936E001092810080918100826094
:1023500080938100809181008160809381008091D1
:1023600080008160809380008091B10084608093C0
:10237000B1008091B00081608093B00080917A00BC
:10238000846080937A0080917A00826080937A00E2
:1023900080917A00816080937A0080917A008068D1
:1023A00080937A001092C100E0913B02F0913C02D0
:1023B00082E08083E0913702F09138021082E09150
:1023C0003902F0913A0280E1808310924302E09159
:1023D0003F02F091400286E08083E0913D02F0915F
:1023E0003E02808180618083E0913D02F0913E0257
:1023F000808188608083E0913D02F0913E0280817F
:1024000080688083E0913D02F0913E0280818F7D63
:10241000808360E072EC81E090E00E948E0064E6D0
:1024200070E080E090E00E94670488EC92E00E94F7
:102430008806892B29F088EC92E00E949E06F5CF51
:102440006DE871E088EC92E00E94380A64EF71E078
:1024500080E090E00E9467046FE971E0CE0107968A
:102460000E940A0C88EC92E00E948806892B51F0A9
:1024700088EC92E00E949E06682FCE0107960E948B
:10248000B90BF0CF62E971E0CE0101960E940A0C0F
:10249000BE016F5F7F4FCE0107960E945B0B8C01E0
:1024A000CE0101960E9482080F3F1F4F09F068C0BD
:1024B00060E875E280E090E00E948E0064E670E0E3
:1024C00080E090E00E94670488EC92E00E94880619
:1024D000892B29F088EC92E00E949E06F5CF6DE8EA
:1024E00071E088EC92E00E94380A64EF71E080E0CD
:1024F00090E00E94670450E040E06FE971E0CE0197
:1025000007960E94E90B88EC92E00E948806892BCE
:1025100051F088EC92E00E949E06682FCE0107964B
:102520000E94B90BF0CF62E971E0CE0101960E94E2
:102530000A0CBE016F5F7F4FCE0107960E945B0BB6
:102540008C01CE0101960E9482080F3F1F4F61F05F
:1025500065E971E088EC92E00E94380A64EF71E06E
:1025600080E090E00E94670460E072EC81E090E01F
:102570000E948E0064E670E080E090E00E946704B4
:10258000CE0107960E94820883E190E00E94AF1A74
:102590008C018091050190910601D80115968C93CC
:1025A00015972BE016962C9316979C013327F9016B
:1025B000E155FF4FE4911796EC931797F901E55613
:1025C000FF4FE4911896EC9340E85EE360E070E022
:1025D000F801458756876787708B10930302009335
:1025E000020262E00E949C010E949904605D7740B3
:1025F00081099109D80119966D937D938D939C93D0
:102600001C9787E352968C930E94000830E0232E9B
:1026100030E0332E88EC92E00E94880618161906E6
:102620000CF0DBC06FE971E0CE0107960E940A0C46
:1026300088EC92E00E94D10497FD09C08A30910590
:1026400031F0682FCE0107960E94B90BF1CFCE0171
:1026500007960E94FE0A60EA71E0CE0101960E9490
:102660000A0CEF80F884E114F10409F4D4C00B855E
:102670001C8501151105B9F08D819E81080F191F68
:10268000B801CE0101960E94910B882309F4C3C0C2
:1026900029813A818D819E81B701820F931F0E940B
:1026A000A51C1E830D834D815E8169817A818BE239
:1026B00092E00E9406056DE971E08BE292E00E94D3
:1026C0008A08CE0101960E9482088B859C85892B01
:1026D00009F47FC00E9499046093090270930A0272
:1026E00080930B0290930C0269E571E0CE01019694
:1026F0000E940A0CBE016F5F7F4FCE0107960E94B9
:10270000760B182FCE0101960E948208112309F43E
:1027100087C070E060E0CE0107960E9454086C010B
:102720007C01BFEFEB1AFB0AB701CE0107960E94AE
:1027300054088C01EFEFCE16DE0609F44AC001966C
:1027400009F447C0960144E050E0BE01695F7F4F45
:10275000CE0101960E941B0CCE0101960E94F30A45
:102760002B01CE0101960E9482089801A701BE01AB
:10277000695F7F4FCE0101960E941B0CCE0101962E
:102780000E94F30A4B01CE0101960E948208A80123
:102790004F5F5F4FBE01695F7F4FCE0101960E9480
:1027A000700CCE0101960E94F30A6B01CE010196D6
:1027B0000E948208B201809111010E94D003B401ED
:1027C00080910F010E94D003B60180910D010E94FB
:1027D000D003CE0107960E9482088BE292E00E940D
:1027E0006405181619060CF07DC16FE971E0CE0181
:1027F00007960E940A0C8BE292E00E94D10497FD9A
:10280000E5C08A30910509F4E1C0682FCE01079632
:102810000E94B90BF0CFCE0101960E94700843CF01
:102820006EE571E0CE0101960E940A0CBE016F5F59
:102830007F4FCE0107960E94760B182FCE0101968E
:102840000E948208112309F448C070E060E0CE01C4
:1028500007960E9454088C018F3F980709F4B9CF5E
:102860009C0145E050E0BE01695F7F4FCE010196BB
:102870000E941B0CCE0101960E94F30A6B01CE014F
:1028800001960E948208A8014F5F5F4FBE01695FF9
:102890007F4FCE0101960E94700CCE0101960E94DE
:1028A000F30A4B018B01CE0101960E94820861E080
:1028B0001C141D040CF060E080910B010E946E015D
:1028C000B401809109010E94D00381E01016110625
:1028D0000CF080E0809308027CCF64E671E0CE01CA
:1028E00001960E940A0CBE016F5F7F4FCE010796D2
:1028F0000E94760B182FCE0101960E9482081123A8
:10290000F1F044E050E0BE01695F7F4FCE010196D7
:102910000E94700CCE0101960E94F30A6B01CE0159
:1029200001960E948208809107011C141D0424F462
:10293000B6010E94D8014DCF0E94A5044ACF6FEA8C
:1029400071E0CE0101960E940A0CBE016F5F7F4FBD
:10295000CE0107960E94760B182FCE0101960E9499
:1029600082081123D1F01A8219821C821B821E82D6
:102970001D826F8178856115710531F04B855C850D
:10298000CE0101960E94E90BCE0101960E947C0CBB
:10299000CE0101960E9482081CCF64EB71E0CE014B
:1029A00001960E940A0CBE016F5F7F4FCE01079611
:1029B0000E94760B182FCE0101960E9482081123E7
:1029C00009F407CF81E00E943A0A03CFCE010796AF
:1029D0000E94FE0A8B859C85892B09F47FC00E948A
:1029E00099046093090270930A0280930B029093FA
:1029F0000C0269E571E0CE0101960E940A0CBE014D
:102A00006F5F7F4FCE0107960E94760B182FCE0185
:102A100001960E948208112309F4A2C070E060E0D0
:102A2000CE0107960E9454086C017C013FEFE31A27
:102A3000F30AB701CE0107960E9454088C014FEFAC
:102A4000C416D40609F44AC0019609F447C0960199
:102A500044E050E0BE01695F7F4FCE0101960E94C5
:102A60001B0CCE0101960E94F30A2B01CE010196A8
:102A70000E9482089801A701BE01695F7F4FCE01C5
:102A800001960E941B0CCE0101960E94F30A4B0195
:102A9000CE0101960E948208A8014F5F5F4FBE01E0
:102AA000695F7F4FCE0101960E94700CCE010196A6
:102AB0000E94F30A6B01CE0101960E948208B201C6
:102AC000809111010E94D003B40180910F010E94F6
:102AD000D003B60180910D010E94D003CE0107966C
:102AE0000E9482080E9499044B015C0180910402BB
:102AF00090910502A0910602B0910702A5019401F0
:102B0000281B390B4A0B5B0BDA01C901803D97404A
:102B1000A105B10508F4A5C18092040290920502B6
:102B2000A0920602B09207020091020210910302E5
:102B3000C8010E94FC06882361F0D80116968C918A
:102B40008B3038F08D3008F4E1C08551823008F4C4
:102B500012C1C12CD12C20ECE22E2FE7F22EF4C0B2
:102B60006EE571E0CE0101960E940A0CBE016F5F16
:102B70007F4FCE0107960E94760B182FCE0101964B
:102B80000E948208112309F448C070E060E0CE0181
:102B900007960E9454088C010F3F100709F49ECF3E
:102BA000980145E050E0BE01695F7F4FCE0101967C
:102BB0000E941B0CCE0101960E94F30A6B01CE010C
:102BC00001960E948208A8014F5F5F4FBE01695FB6
:102BD0007F4FCE0101960E94700CCE0101960E949B
:102BE000F30A4B018B01CE0101960E94820861E03D
:102BF0001C141D040CF060E080910B010E946E011A
:102C0000B401809109010E94D00381E010161106E1
:102C10000CF080E08093080261CF64E671E0CE01A1
:102C200001960E940A0CBE016F5F7F4FCE0107968E
:102C30000E94760B182FCE0101960E948208112364
:102C4000F1F044E050E0BE01695F7F4FCE01019694
:102C50000E94700CCE0101960E94F30A6B01CE0116
:102C600001960E948208809107011C141D0424F41F
:102C7000B6010E94D80132CF0E94A5042FCF6FEA7F
:102C800071E0CE0101960E940A0CBE016F5F7F4F7A
:102C9000CE0107960E94760B182FCE0101960E9456
:102CA00082081123D1F01A8219821C821B821E8293
:102CB0001D826F8178856115710531F04B855C85CA
:102CC000CE0101960E94E90BCE0101960E947C0C78
:102CD000CE0101960E94820801CF64EB71E0CE0123
:102CE00001960E940A0CBE016F5F7F4FCE010796CE
:102CF0000E94760B182FCE0101960E9482081123A4
:102D000009F4ECCE80E00E943A0AE8CEF801618135
:102D100070E090E080E00E94F9172DEC3CEC4CEC68
:102D20005DE30E9458186B017C01D8016C9170E042
:102D300090E080E00E94F9179B01AC01C701B60149
:102D40000E9451196B017C01C8010E94FC06882376
:102D500009F487C0D80116968C9116978C3009F427
:102D6000B8C0D0F48B3091F1412C512C80EC682EFE
:102D70008FE7782E56C0F80160817181762767272A
:102D8000762790E080E00E94F7172DEC3CEC4CECAD
:102D90005DE30E945818D6CF8551823028F7F8019C
:102DA000F281FD876F2F70E0762F662766277F7789
:102DB00013968C91682B90E080E00E94F7172DEC21
:102DC0003CEC4CEC5DE30E945818A1C0F801628114
:102DD00070E090E080E00E94F7172B013C01D801E1
:102DE00013961C9117FF0AC0AC019B0160E070E0D4
:102DF00080E89FEB0E9450192B013C011F70612F4E
:102E000070E090E080E00E94F9172DEC3CEC4CEC77
:102E10005DE30E945818A30192010E9451192B01F1
:102E20003C01A7019601C701B6010E94631A8111F6
:102E300018C0A3019201C301B2010E94631A81115B
:102E400010C0C092FE01D092FF01E0920002F09209
:102E500001024092FA015092FB016092FC017092D3
:102E6000FD0180910802882341F18091090290912F
:102E70000A02A0910B02B0910C020097A105B105C6
:102E8000E1F0881A990AAA0ABB0AE9EB8E16EBE070
:102E90009E06A104B10488F070E060E08091090111
:102EA0000E94D00360E080910B010E946E0180912E
:102EB00007010E94A504109208022114310409F4AC
:102EC000A9CB0E947005882309F4A4CB0E940000BE
:102ED000A1CBF801F281FD876F2F70E090E080E0D8
:102EE0000E94F7172B013C01D80113966C916F706B
:102EF00070E090E080E00E94F9172DEC3CEC4CEC87
:102F00005DE30E945818A30192010E9451192B0100
:102F10003C01BD85B7FF85CF77FA709477F8709440
:102F200080CF80E391E09093C9028093C8028091A2
:102F3000290290912A02885C924071F4E091DB02B0
:102F4000F091DC0290818091DD028095892380835D
:102F500010922A021092290208951F93FC019927CA
:102F60008827BC01E89411911032E9F3193010F070
:102F70001E30C8F31B3251F01D3249F4689406C06C
:102F80000E94D417610F711D811D911D1191105365
:102F90001A30B0F33EF490958095709561957F4F0F
:102FA0008F4F9F4F1F910895592F482F372F262F4E
:102FB000660F771F881F991F660F771F881F991F3D
:102FC000620F731F841F951F660F771F881F991F3D
:102FD000089591110C94C518803219F089508550CC
:102FE000C8F708950E94341808F481E00895E89421
:102FF00009C097FB3EF490958095709561957F4F41
:103000008F4F9F4F9923A9F0F92F96E9BB279395EE
:10301000F695879577956795B795F111F8CFFAF4FE
:10302000BB0F11F460FF1BC06F5F7F4F8F4F9F4F2F
:1030300016C0882311F096E911C0772321F09EE88D
:10304000872F762F05C0662371F096E8862F70E0F3
:1030500060E02AF09A95660F771F881FDAF7880FCD
:103060009695879597F90895990F0008550FAA0B23
:10307000E0E8FEEF16161706E807F907C0F012168B
:103080001306E407F50798F0621B730B840B950B8E
:1030900039F40A2661F0232B242B252B21F40895E3
:1030A0000A2609F4A140A6958FEF811D811D089580
:1030B0000E946B180C94DF180E94D11838F00E94FF
:1030C000D81820F0952311F00C94C8180C94CE1841
:1030D00011240C9413190E94F01870F3959FC1F3FA
:1030E000950F50E0551F629FF001729FBB27F00DB6
:1030F000B11D639FAA27F00DB11DAA1F649F66270B
:10310000B00DA11D661F829F2227B00DA11D621F59
:10311000739FB00DA11D621F839FA00D611D221F13
:10312000749F3327A00D611D231F849F600D211DF7
:10313000822F762F6A2F11249F5750409AF0F1F07A
:1031400088234AF0EE0FFF1FBB1F661F771F881FE3
:1031500091505040A9F79E3F510580F00C94C8183B
:103160000C9413195F3FE4F3983ED4F3869577955A
:103170006795B795F795E7959F5FC1F7FE2B880F89
:10318000911D9695879597F9089599278827089511
:1031900097F99F6780E870E060E008959FEF80EC0A
:1031A000089500240A9416161706180609060895AD
:1031B00000240A9412161306140605060895092E13
:1031C0000394000C11F4882352F0BB0F40F4BF2B82
:1031D00011F460FF04C06F5F7F4F8F4F9F4F0895C2
:1031E00057FD9058440F551F59F05F3F71F04795B8
:1031F000880F97FB991F61F09F3F79F0879508959D
:10320000121613061406551FF2CF4695F1DF08C0BB
:10321000161617061806991FF1CF869571056105D8
:1032200008940895E894BB2766277727CB0197F980
:1032300008952F923F924F925F926F927F928F925A
:103240009F92AF92BF92CF92DF92EF92FF920F9335
:103250001F93CF93DF93CDB7DEB7CA1BDB0B0FB63F
:10326000F894DEBF0FBECDBF09942A8839884888FC
:103270005F846E847D848C849B84AA84B984C88492
:10328000DF80EE80FD800C811B81AA81B981CE0F89
:10329000D11D0FB6F894DEBF0FBECDBFED0108956E
:1032A0005058BB27AA270E9468190C94DF180E9467
:1032B000D11838F00E94D81820F039F49F3F19F443
:1032C00026F40C94CE180EF4E095E7FB0C94C81885
:1032D000E92F0E94F01858F3BA17620773078407A2
:1032E000950720F079F4A6F50C9412190EF4E095E8
:1032F0000B2EBA2FA02D0B01B90190010C01CA01B0
:10330000A0011124FF27591B99F0593F50F4503E5A
:1033100068F11A16F040A22F232F342F4427585F4C
:10332000F3CF469537952795A795F0405395C9F764
:103330007EF41F16BA0B620B730B840BBAF091501C
:10334000A1F0FF0FBB1F661F771F881FC2F70EC0BB
:10335000BA0F621F731F841F48F48795779567958E
:10336000B795F7959E3F08F0B0CF9395880F08F07A
:103370009927EE0F9795879508950E94D1190C947F
:10338000DF180E94D81858F00E94D11840F029F494
:103390005F3F29F00C94C81851110C9413190C9428
:1033A000CE180E94F01868F39923B1F3552391F3D6
:1033B000951B550BBB27AA2762177307840738F0A4
:1033C0009F5F5F4F220F331F441FAA1FA9F335D001
:1033D0000E2E3AF0E0E832D091505040E695001CB5
:1033E000CAF72BD0FE2F29D0660F771F881FBB1F6F
:1033F000261737074807AB07B0E809F0BB0B802D4D
:10340000BF01FF2793585F4F3AF09E3F510578F078
:103410000C94C8180C9413195F3FE4F3983ED4F34E
:10342000869577956795B795F7959F5FC9F7880F4C
:10343000911D9695879597F90895E1E0660F771F9E
:10344000881FBB1F621773078407BA0720F0621B2F
:10345000730B840BBA0BEE1F88F7E09508950E945A
:10346000F81888F09F5798F0B92F9927B751B0F006
:10347000E1F0660F771F881F991F1AF0BA95C9F7F8
:1034800014C0B13091F00E941219B1E008950C946B
:103490001219672F782F8827B85F39F0B93FCCF31E
:1034A000869577956795B395D9F73EF49095809575
:1034B000709561957F4F8F4F9F4F08950E943418EC
:1034C00008F48FEF08950E943418880B990B089523
:1034D000A1E21A2EAA1BBB1BFD010DC0AA1FBB1F18
:1034E000EE1FFF1FA217B307E407F50720F0A21B8A
:1034F000B30BE40BF50B661F771F881F991F1A94F7
:1035000069F760957095809590959B01AC01BD0120
:10351000CF010895052E97FB1EF400940E94A11A76
:1035200057FD07D00E94681A07FC03D04EF40C9494
:10353000A11A50954095309521953F4F4F4F5F4FC1
:10354000089590958095709561957F4F8F4F9F4F0F
:103550000895EE0FFF1F0590F491E02D09940F934D
:103560001F93CF93DF938230910510F482E090E0B7
:10357000E091E902F091EA0230E020E0B0E0A0E062
:10358000309799F42115310509F44AC0281B390BED
:1035900024303105D8F58A819B816115710589F147
:1035A000FB0193838283FE0111C04081518102811E
:1035B000138148175907E0F04817590799F41097F5
:1035C00061F012960C93129713961C933296CF01CA
:1035D000DF91CF911F910F9108950093E90210930D
:1035E000EA02F4CF2115310551F04217530738F0A4
:1035F000A901DB019A01BD01DF01F801C1CFEF0193
:10360000F9CF9093EA028093E902CDCFFE01E20F59
:10361000F31F819391932250310939832883D7CFA7
:103620002091E7023091E802232B41F4209116010A
:10363000309117013093E8022093E70220911401A2
:10364000309115012115310541F42DB73EB7409158
:10365000180150911901241B350BE091E702F091FC
:10366000E802E217F307A0F42E1B3F0B28173907D7
:1036700078F0AC014E5F5F4F2417350748F04E0FCE
:103680005F1F5093E8024093E702819391939FCF8D
:10369000F0E0E0E09CCFCF93DF930097E9F0FC01EE
:1036A000329713821282A091E902B091EA02ED01F1
:1036B00030E020E01097A1F420813181820F931F28
:1036C0002091E7023091E8022817390709F061C01C
:1036D000F093E802E093E702DF91CF910895EA01C9
:1036E000CE17DF07E8F54A815B819E014115510540
:1036F000B1F7E901FB83EA8349915991C40FD51FC2
:10370000EC17FD0761F4808191810296840F951F6B
:10371000E90199838883828193819B838A83F0E086
:10372000E0E012968D919C9113970097B9F52D9139
:103730003C911197CD010296820F931F2091E702D1
:103740003091E8022817390739F6309751F5109271
:10375000EA021092E902B093E802A093E702BCCF1C
:10376000D383C28340815181840F951FC817D90725
:1037700061F44E5F5F4F88819981480F591F5183D3
:1037800040838A819B81938382832115310509F0CF
:10379000B0CFF093EA02E093E9029ECFFD01DC0195
:1037A000C0CF13821282D7CFB0E0A0E0EAEDFBE1F8
:1037B0000C941B198C01009751F4CB010E94AF1A95
:1037C0008C01C801CDB7DEB7E0E10C943719FC01DC
:1037D000E60FF71F9C0122503109E217F30708F4A6
:1037E0009DC0D901CD91DC911197C617D70798F0EC
:1037F000C530D10530F3CE0104978617970708F33B
:10380000C61BD70B2297C193D1936D937C93CF01A5
:103810000E944B1BD6CF5B01AC1ABD0A4C018C0E2B
:103820009D1EA091E902B091EA02512C412CF12C8D
:10383000E12C109731F58091E7029091E80288150C
:10384000990509F05CC04616570608F058C08091EB
:10385000140190911501009741F48DB79EB74091E6
:10386000180150911901841B950BE817F90708F00E
:1038700055C0F093E802E093E702F9017183608399
:10388000A0CF8D919C91119712966C9012971396E0
:103890007C901397A815B90559F56C0142E0C40E48
:1038A000D11CCA14DB0420F1AC014A195B09DA010E
:1038B0001296159780F06282738251834083D901FA
:1038C0006D937C93E114F10471F0D7011396FC938E
:1038D000EE93129776CF22968C0F9D1FF90191835C
:1038E0008083F301EFCFF093EA02E093E90269CF1E
:1038F0004816590608F42C017D01D3019ACFCB015B
:103900000E94AF1A7C01009749F0AE01B8010E94F5
:10391000911CC8010E944B1B870153CF10E000E0AF
:1039200050CFFB01DC0102C001900D92415050408C
:10393000D8F70895FC018191861721F08823D9F7E3
:10394000992708953197CF010895FB01DC0101907B
:103950000D920020E1F70895FB01DC014150504039
:1039600030F08D910190801919F40020B9F7881B6F
:10397000990B0895FB0151915523A9F0BF01DC017A
:103980004D9145174111E1F759F4CD010190002007
:1039900049F04D9140154111C9F3FB014111EFCFA1
:1039A00081E090E00197089510E0C3E6D0E004C004
:1039B000FE010E94A91A2196C436D107C9F7F894CE
:0239C000FFCF37
:1039C200010F000E0003000400060007000B000AAE
:1039D200000900FF0000EB02800000000000A605C5
:1039E20006053305F305640542055605000000008F
:1039F2002C060605BF062B0688069E0613066E6178
:103A02006E00696E66006F766600483A002C543A82
:103A1200002C4C3A002C533A005247423A0050557F
:103A22004D503A0042555A3A004448543A004C49E3
:103A3200473A004100534F494C3A004C49474854D9
:103A42005F545950453A00414F00444F0041540DD4
:103A52000A004F4B0041542B42415544380D0A0095
:103A6200444542554720EC8898EC8BA03A2000430D
:0A3A720046473A0050494E47000055
:00000001FF
